{
	"Module4.sol": {
		"FoxyPeso": {
			"abi": [
				{
					"anonymous": false,
					"inputs": [
						{
							"indexed": true,
							"internalType": "address",
							"name": "from",
							"type": "address"
						},
						{
							"indexed": false,
							"internalType": "uint256",
							"name": "value",
							"type": "uint256"
						}
					],
					"name": "Burn",
					"type": "event"
				},
				{
					"anonymous": false,
					"inputs": [
						{
							"indexed": true,
							"internalType": "address",
							"name": "owner",
							"type": "address"
						},
						{
							"indexed": false,
							"internalType": "uint256",
							"name": "value",
							"type": "uint256"
						}
					],
					"name": "Mint",
					"type": "event"
				},
				{
					"anonymous": false,
					"inputs": [
						{
							"indexed": true,
							"internalType": "address",
							"name": "previousOwner",
							"type": "address"
						},
						{
							"indexed": true,
							"internalType": "address",
							"name": "newOwner",
							"type": "address"
						}
					],
					"name": "OwnershipTransferred",
					"type": "event"
				},
				{
					"anonymous": false,
					"inputs": [
						{
							"indexed": false,
							"internalType": "address",
							"name": "account",
							"type": "address"
						}
					],
					"name": "Paused",
					"type": "event"
				},
				{
					"anonymous": false,
					"inputs": [
						{
							"indexed": true,
							"internalType": "address",
							"name": "from",
							"type": "address"
						},
						{
							"indexed": true,
							"internalType": "address",
							"name": "to",
							"type": "address"
						},
						{
							"indexed": false,
							"internalType": "uint256",
							"name": "value",
							"type": "uint256"
						}
					],
					"name": "Transfer",
					"type": "event"
				},
				{
					"anonymous": false,
					"inputs": [
						{
							"indexed": false,
							"internalType": "address",
							"name": "account",
							"type": "address"
						}
					],
					"name": "Unpaused",
					"type": "event"
				},
				{
					"inputs": [
						{
							"internalType": "address",
							"name": "",
							"type": "address"
						}
					],
					"name": "balances",
					"outputs": [
						{
							"internalType": "uint256",
							"name": "",
							"type": "uint256"
						}
					],
					"stateMutability": "view",
					"type": "function"
				},
				{
					"inputs": [
						{
							"internalType": "address",
							"name": "from",
							"type": "address"
						},
						{
							"internalType": "uint256",
							"name": "value",
							"type": "uint256"
						}
					],
					"name": "burn",
					"outputs": [],
					"stateMutability": "nonpayable",
					"type": "function"
				},
				{
					"inputs": [],
					"name": "decimals",
					"outputs": [
						{
							"internalType": "uint8",
							"name": "",
							"type": "uint8"
						}
					],
					"stateMutability": "view",
					"type": "function"
				},
				{
					"inputs": [
						{
							"internalType": "address",
							"name": "owner",
							"type": "address"
						},
						{
							"internalType": "uint256",
							"name": "value",
							"type": "uint256"
						}
					],
					"name": "mint",
					"outputs": [],
					"stateMutability": "nonpayable",
					"type": "function"
				},
				{
					"inputs": [],
					"name": "name",
					"outputs": [
						{
							"internalType": "string",
							"name": "",
							"type": "string"
						}
					],
					"stateMutability": "view",
					"type": "function"
				},
				{
					"inputs": [],
					"name": "owner",
					"outputs": [
						{
							"internalType": "address",
							"name": "",
							"type": "address"
						}
					],
					"stateMutability": "view",
					"type": "function"
				},
				{
					"inputs": [],
					"name": "pause",
					"outputs": [],
					"stateMutability": "nonpayable",
					"type": "function"
				},
				{
					"inputs": [],
					"name": "paused",
					"outputs": [
						{
							"internalType": "bool",
							"name": "",
							"type": "bool"
						}
					],
					"stateMutability": "view",
					"type": "function"
				},
				{
					"inputs": [],
					"name": "renounceOwnership",
					"outputs": [],
					"stateMutability": "nonpayable",
					"type": "function"
				},
				{
					"inputs": [],
					"name": "symbol",
					"outputs": [
						{
							"internalType": "string",
							"name": "",
							"type": "string"
						}
					],
					"stateMutability": "view",
					"type": "function"
				},
				{
					"inputs": [],
					"name": "totalSupply",
					"outputs": [
						{
							"internalType": "uint256",
							"name": "",
							"type": "uint256"
						}
					],
					"stateMutability": "view",
					"type": "function"
				},
				{
					"inputs": [
						{
							"internalType": "address",
							"name": "to",
							"type": "address"
						},
						{
							"internalType": "uint256",
							"name": "value",
							"type": "uint256"
						}
					],
					"name": "transfer",
					"outputs": [],
					"stateMutability": "nonpayable",
					"type": "function"
				},
				{
					"inputs": [
						{
							"internalType": "address",
							"name": "newOwner",
							"type": "address"
						}
					],
					"name": "transferOwnership",
					"outputs": [],
					"stateMutability": "nonpayable",
					"type": "function"
				},
				{
					"inputs": [],
					"name": "unpause",
					"outputs": [],
					"stateMutability": "nonpayable",
					"type": "function"
				}
			],
			"devdoc": {
				"events": {
					"Paused(address)": {
						"details": "Emitted when the pause is triggered by `account`."
					},
					"Unpaused(address)": {
						"details": "Emitted when the pause is lifted by `account`."
					}
				},
				"kind": "dev",
				"methods": {
					"owner()": {
						"details": "Returns the address of the current owner."
					},
					"paused()": {
						"details": "Returns true if the contract is paused, and false otherwise."
					},
					"renounceOwnership()": {
						"details": "Leaves the contract without owner. It will not be possible to call `onlyOwner` functions anymore. Can only be called by the current owner. NOTE: Renouncing ownership will leave the contract without an owner, thereby removing any functionality that is only available to the owner."
					},
					"transferOwnership(address)": {
						"details": "Transfers ownership of the contract to a new account (`newOwner`). Can only be called by the current owner."
					}
				},
				"version": 1
			},
			"evm": {
				"assembly": "    /* \"Module4.sol\":173:1553  contract FoxyPeso is Ownable, Pausable {... */\n  mstore(0x40, 0x80)\n  callvalue\n  dup1\n  iszero\n  tag_1\n  jumpi\n  0x00\n  dup1\n  revert\ntag_1:\n  pop\n    /* \"@openzeppelin/contracts/access/Ownable.sol\":936:968  _transferOwnership(_msgSender()) */\n  tag_5\n    /* \"@openzeppelin/contracts/access/Ownable.sol\":955:967  _msgSender() */\n  tag_6\n    /* \"@openzeppelin/contracts/access/Ownable.sol\":955:965  _msgSender */\n  shl(0x20, tag_7)\n    /* \"@openzeppelin/contracts/access/Ownable.sol\":955:967  _msgSender() */\n  0x20\n  shr\n  jump\t// in\ntag_6:\n    /* \"@openzeppelin/contracts/access/Ownable.sol\":936:954  _transferOwnership */\n  shl(0x20, tag_8)\n    /* \"@openzeppelin/contracts/access/Ownable.sol\":936:968  _transferOwnership(_msgSender()) */\n  0x20\n  shr\n  jump\t// in\ntag_5:\n    /* \"@openzeppelin/contracts/security/Pausable.sol\":1006:1011  false */\n  0x00\n    /* \"@openzeppelin/contracts/security/Pausable.sol\":996:1003  _paused */\n  dup1\n  0x14\n    /* \"@openzeppelin/contracts/security/Pausable.sol\":996:1011  _paused = false */\n  0x0100\n  exp\n  dup2\n  sload\n  dup2\n  0xff\n  mul\n  not\n  and\n  swap1\n  dup4\n  iszero\n  iszero\n  mul\n  or\n  swap1\n  sstore\n  pop\n    /* \"Module4.sol\":173:1553  contract FoxyPeso is Ownable, Pausable {... */\n  jump(tag_10)\n    /* \"@openzeppelin/contracts/utils/Context.sol\":640:736  function _msgSender() internal view virtual returns (address) {... */\ntag_7:\n    /* \"@openzeppelin/contracts/utils/Context.sol\":693:700  address */\n  0x00\n    /* \"@openzeppelin/contracts/utils/Context.sol\":719:729  msg.sender */\n  caller\n    /* \"@openzeppelin/contracts/utils/Context.sol\":712:729  return msg.sender */\n  swap1\n  pop\n    /* \"@openzeppelin/contracts/utils/Context.sol\":640:736  function _msgSender() internal view virtual returns (address) {... */\n  swap1\n  jump\t// out\n    /* \"@openzeppelin/contracts/access/Ownable.sol\":2433:2620  function _transferOwnership(address newOwner) internal virtual {... */\ntag_8:\n    /* \"@openzeppelin/contracts/access/Ownable.sol\":2506:2522  address oldOwner */\n  0x00\n    /* \"@openzeppelin/contracts/access/Ownable.sol\":2525:2531  _owner */\n  dup1\n  0x00\n  swap1\n  sload\n  swap1\n  0x0100\n  exp\n  swap1\n  div\n  0xffffffffffffffffffffffffffffffffffffffff\n  and\n    /* \"@openzeppelin/contracts/access/Ownable.sol\":2506:2531  address oldOwner = _owner */\n  swap1\n  pop\n    /* \"@openzeppelin/contracts/access/Ownable.sol\":2550:2558  newOwner */\n  dup2\n    /* \"@openzeppelin/contracts/access/Ownable.sol\":2541:2547  _owner */\n  0x00\n  dup1\n    /* \"@openzeppelin/contracts/access/Ownable.sol\":2541:2558  _owner = newOwner */\n  0x0100\n  exp\n  dup2\n  sload\n  dup2\n  0xffffffffffffffffffffffffffffffffffffffff\n  mul\n  not\n  and\n  swap1\n  dup4\n  0xffffffffffffffffffffffffffffffffffffffff\n  and\n  mul\n  or\n  swap1\n  sstore\n  pop\n    /* \"@openzeppelin/contracts/access/Ownable.sol\":2604:2612  newOwner */\n  dup2\n    /* \"@openzeppelin/contracts/access/Ownable.sol\":2573:2613  OwnershipTransferred(oldOwner, newOwner) */\n  0xffffffffffffffffffffffffffffffffffffffff\n  and\n    /* \"@openzeppelin/contracts/access/Ownable.sol\":2594:2602  oldOwner */\n  dup2\n    /* \"@openzeppelin/contracts/access/Ownable.sol\":2573:2613  OwnershipTransferred(oldOwner, newOwner) */\n  0xffffffffffffffffffffffffffffffffffffffff\n  and\n  0x8be0079c531659141344cd1fd0a4f28419497f9722a3daafe3b4186f6b6457e0\n  mload(0x40)\n  mload(0x40)\n  dup1\n  swap2\n  sub\n  swap1\n  log3\n    /* \"@openzeppelin/contracts/access/Ownable.sol\":2496:2620  {... */\n  pop\n    /* \"@openzeppelin/contracts/access/Ownable.sol\":2433:2620  function _transferOwnership(address newOwner) internal virtual {... */\n  pop\n  jump\t// out\n    /* \"Module4.sol\":173:1553  contract FoxyPeso is Ownable, Pausable {... */\ntag_10:\n  dataSize(sub_0)\n  dup1\n  dataOffset(sub_0)\n  0x00\n  codecopy\n  0x00\n  return\nstop\n\nsub_0: assembly {\n        /* \"Module4.sol\":173:1553  contract FoxyPeso is Ownable, Pausable {... */\n      mstore(0x40, 0x80)\n      callvalue\n      dup1\n      iszero\n      tag_1\n      jumpi\n      0x00\n      dup1\n      revert\n    tag_1:\n      pop\n      jumpi(tag_2, lt(calldatasize, 0x04))\n      shr(0xe0, calldataload(0x00))\n      dup1\n      0x715018a6\n      gt\n      tag_17\n      jumpi\n      dup1\n      0x95d89b41\n      gt\n      tag_18\n      jumpi\n      dup1\n      0x95d89b41\n      eq\n      tag_13\n      jumpi\n      dup1\n      0x9dc29fac\n      eq\n      tag_14\n      jumpi\n      dup1\n      0xa9059cbb\n      eq\n      tag_15\n      jumpi\n      dup1\n      0xf2fde38b\n      eq\n      tag_16\n      jumpi\n      jump(tag_2)\n    tag_18:\n      dup1\n      0x715018a6\n      eq\n      tag_10\n      jumpi\n      dup1\n      0x8456cb59\n      eq\n      tag_11\n      jumpi\n      dup1\n      0x8da5cb5b\n      eq\n      tag_12\n      jumpi\n      jump(tag_2)\n    tag_17:\n      dup1\n      0x313ce567\n      gt\n      tag_19\n      jumpi\n      dup1\n      0x313ce567\n      eq\n      tag_6\n      jumpi\n      dup1\n      0x3f4ba83a\n      eq\n      tag_7\n      jumpi\n      dup1\n      0x40c10f19\n      eq\n      tag_8\n      jumpi\n      dup1\n      0x5c975abb\n      eq\n      tag_9\n      jumpi\n      jump(tag_2)\n    tag_19:\n      dup1\n      0x06fdde03\n      eq\n      tag_3\n      jumpi\n      dup1\n      0x18160ddd\n      eq\n      tag_4\n      jumpi\n      dup1\n      0x27e235e3\n      eq\n      tag_5\n      jumpi\n    tag_2:\n      0x00\n      dup1\n      revert\n        /* \"Module4.sol\":221:262  string public constant name = \"Foxy Peso\" */\n    tag_3:\n      tag_20\n      tag_21\n      jump\t// in\n    tag_20:\n      mload(0x40)\n      tag_22\n      swap2\n      swap1\n      tag_23\n      jump\t// in\n    tag_22:\n      mload(0x40)\n      dup1\n      swap2\n      sub\n      swap1\n      return\n        /* \"Module4.sol\":354:380  uint256 public totalSupply */\n    tag_4:\n      tag_24\n      tag_25\n      jump\t// in\n    tag_24:\n      mload(0x40)\n      tag_26\n      swap2\n      swap1\n      tag_27\n      jump\t// in\n    tag_26:\n      mload(0x40)\n      dup1\n      swap2\n      sub\n      swap1\n      return\n        /* \"Module4.sol\":389:432  mapping(address => uint256) public balances */\n    tag_5:\n      tag_28\n      0x04\n      dup1\n      calldatasize\n      sub\n      dup2\n      add\n      swap1\n      tag_29\n      swap2\n      swap1\n      tag_30\n      jump\t// in\n    tag_29:\n      tag_31\n      jump\t// in\n    tag_28:\n      mload(0x40)\n      tag_32\n      swap2\n      swap1\n      tag_27\n      jump\t// in\n    tag_32:\n      mload(0x40)\n      dup1\n      swap2\n      sub\n      swap1\n      return\n        /* \"Module4.sol\":312:347  uint8 public constant decimals = 18 */\n    tag_6:\n      tag_33\n      tag_34\n      jump\t// in\n    tag_33:\n      mload(0x40)\n      tag_35\n      swap2\n      swap1\n      tag_36\n      jump\t// in\n    tag_35:\n      mload(0x40)\n      dup1\n      swap2\n      sub\n      swap1\n      return\n        /* \"Module4.sol\":1485:1550  function unpause() public onlyOwner {... */\n    tag_7:\n      tag_37\n      tag_38\n      jump\t// in\n    tag_37:\n      stop\n        /* \"Module4.sol\":630:799  function mint(address owner, uint256 value) public onlyOwner {... */\n    tag_8:\n      tag_39\n      0x04\n      dup1\n      calldatasize\n      sub\n      dup2\n      add\n      swap1\n      tag_40\n      swap2\n      swap1\n      tag_41\n      jump\t// in\n    tag_40:\n      tag_42\n      jump\t// in\n    tag_39:\n      stop\n        /* \"@openzeppelin/contracts/security/Pausable.sol\":1615:1699  function paused() public view virtual returns (bool) {... */\n    tag_9:\n      tag_43\n      tag_44\n      jump\t// in\n    tag_43:\n      mload(0x40)\n      tag_45\n      swap2\n      swap1\n      tag_46\n      jump\t// in\n    tag_45:\n      mload(0x40)\n      dup1\n      swap2\n      sub\n      swap1\n      return\n        /* \"@openzeppelin/contracts/access/Ownable.sol\":1831:1932  function renounceOwnership() public virtual onlyOwner {... */\n    tag_10:\n      tag_47\n      tag_48\n      jump\t// in\n    tag_47:\n      stop\n        /* \"Module4.sol\":1416:1477  function pause() public onlyOwner {... */\n    tag_11:\n      tag_49\n      tag_50\n      jump\t// in\n    tag_49:\n      stop\n        /* \"@openzeppelin/contracts/access/Ownable.sol\":1201:1286  function owner() public view virtual returns (address) {... */\n    tag_12:\n      tag_51\n      tag_52\n      jump\t// in\n    tag_51:\n      mload(0x40)\n      tag_53\n      swap2\n      swap1\n      tag_54\n      jump\t// in\n    tag_53:\n      mload(0x40)\n      dup1\n      swap2\n      sub\n      swap1\n      return\n        /* \"Module4.sol\":269:305  string public constant symbol = \"FP\" */\n    tag_13:\n      tag_55\n      tag_56\n      jump\t// in\n    tag_55:\n      mload(0x40)\n      tag_57\n      swap2\n      swap1\n      tag_23\n      jump\t// in\n    tag_57:\n      mload(0x40)\n      dup1\n      swap2\n      sub\n      swap1\n      return\n        /* \"Module4.sol\":807:1048  function burn(address from, uint256 value) public onlyOwner {... */\n    tag_14:\n      tag_58\n      0x04\n      dup1\n      calldatasize\n      sub\n      dup2\n      add\n      swap1\n      tag_59\n      swap2\n      swap1\n      tag_41\n      jump\t// in\n    tag_59:\n      tag_60\n      jump\t// in\n    tag_58:\n      stop\n        /* \"Module4.sol\":1056:1408  function transfer(address to, uint256 value) public whenNotPaused {... */\n    tag_15:\n      tag_61\n      0x04\n      dup1\n      calldatasize\n      sub\n      dup2\n      add\n      swap1\n      tag_62\n      swap2\n      swap1\n      tag_41\n      jump\t// in\n    tag_62:\n      tag_63\n      jump\t// in\n    tag_61:\n      stop\n        /* \"@openzeppelin/contracts/access/Ownable.sol\":2081:2279  function transferOwnership(address newOwner) public virtual onlyOwner {... */\n    tag_16:\n      tag_64\n      0x04\n      dup1\n      calldatasize\n      sub\n      dup2\n      add\n      swap1\n      tag_65\n      swap2\n      swap1\n      tag_30\n      jump\t// in\n    tag_65:\n      tag_66\n      jump\t// in\n    tag_64:\n      stop\n        /* \"Module4.sol\":221:262  string public constant name = \"Foxy Peso\" */\n    tag_21:\n      mload(0x40)\n      dup1\n      0x40\n      add\n      0x40\n      mstore\n      dup1\n      0x09\n      dup2\n      mstore\n      0x20\n      add\n      0x466f7879205065736f0000000000000000000000000000000000000000000000\n      dup2\n      mstore\n      pop\n      dup2\n      jump\t// out\n        /* \"Module4.sol\":354:380  uint256 public totalSupply */\n    tag_25:\n      sload(0x01)\n      dup2\n      jump\t// out\n        /* \"Module4.sol\":389:432  mapping(address => uint256) public balances */\n    tag_31:\n      mstore(0x20, 0x02)\n      dup1\n      0x00\n      mstore\n      keccak256(0x00, 0x40)\n      0x00\n      swap2\n      pop\n      swap1\n      pop\n      sload\n      dup2\n      jump\t// out\n        /* \"Module4.sol\":312:347  uint8 public constant decimals = 18 */\n    tag_34:\n        /* \"Module4.sol\":345:347  18 */\n      0x12\n        /* \"Module4.sol\":312:347  uint8 public constant decimals = 18 */\n      dup2\n      jump\t// out\n        /* \"Module4.sol\":1485:1550  function unpause() public onlyOwner {... */\n    tag_38:\n        /* \"@openzeppelin/contracts/access/Ownable.sol\":1094:1107  _checkOwner() */\n      tag_68\n        /* \"@openzeppelin/contracts/access/Ownable.sol\":1094:1105  _checkOwner */\n      tag_69\n        /* \"@openzeppelin/contracts/access/Ownable.sol\":1094:1107  _checkOwner() */\n      jump\t// in\n    tag_68:\n        /* \"Module4.sol\":1532:1542  _unpause() */\n      tag_71\n        /* \"Module4.sol\":1532:1540  _unpause */\n      tag_72\n        /* \"Module4.sol\":1532:1542  _unpause() */\n      jump\t// in\n    tag_71:\n        /* \"Module4.sol\":1485:1550  function unpause() public onlyOwner {... */\n      jump\t// out\n        /* \"Module4.sol\":630:799  function mint(address owner, uint256 value) public onlyOwner {... */\n    tag_42:\n        /* \"@openzeppelin/contracts/access/Ownable.sol\":1094:1107  _checkOwner() */\n      tag_74\n        /* \"@openzeppelin/contracts/access/Ownable.sol\":1094:1105  _checkOwner */\n      tag_69\n        /* \"@openzeppelin/contracts/access/Ownable.sol\":1094:1107  _checkOwner() */\n      jump\t// in\n    tag_74:\n        /* \"Module4.sol\":717:722  value */\n      dup1\n        /* \"Module4.sol\":702:713  totalSupply */\n      0x01\n      0x00\n        /* \"Module4.sol\":702:722  totalSupply += value */\n      dup3\n      dup3\n      sload\n      tag_76\n      swap2\n      swap1\n      tag_77\n      jump\t// in\n    tag_76:\n      swap3\n      pop\n      pop\n      dup2\n      swap1\n      sstore\n      pop\n        /* \"Module4.sol\":752:757  value */\n      dup1\n        /* \"Module4.sol\":733:741  balances */\n      0x02\n        /* \"Module4.sol\":733:748  balances[owner] */\n      0x00\n        /* \"Module4.sol\":742:747  owner */\n      dup5\n        /* \"Module4.sol\":733:748  balances[owner] */\n      0xffffffffffffffffffffffffffffffffffffffff\n      and\n      0xffffffffffffffffffffffffffffffffffffffff\n      and\n      dup2\n      mstore\n      0x20\n      add\n      swap1\n      dup2\n      mstore\n      0x20\n      add\n      0x00\n      keccak256\n      0x00\n        /* \"Module4.sol\":733:757  balances[owner] += value */\n      dup3\n      dup3\n      sload\n      tag_78\n      swap2\n      swap1\n      tag_77\n      jump\t// in\n    tag_78:\n      swap3\n      pop\n      pop\n      dup2\n      swap1\n      sstore\n      pop\n        /* \"Module4.sol\":778:783  owner */\n      dup2\n        /* \"Module4.sol\":773:791  Mint(owner, value) */\n      0xffffffffffffffffffffffffffffffffffffffff\n      and\n      0x0f6798a560793a54c3bcfe86a93cde1e73087d944c0ea20544137d4121396885\n        /* \"Module4.sol\":785:790  value */\n      dup3\n        /* \"Module4.sol\":773:791  Mint(owner, value) */\n      mload(0x40)\n      tag_79\n      swap2\n      swap1\n      tag_27\n      jump\t// in\n    tag_79:\n      mload(0x40)\n      dup1\n      swap2\n      sub\n      swap1\n      log2\n        /* \"Module4.sol\":630:799  function mint(address owner, uint256 value) public onlyOwner {... */\n      pop\n      pop\n      jump\t// out\n        /* \"@openzeppelin/contracts/security/Pausable.sol\":1615:1699  function paused() public view virtual returns (bool) {... */\n    tag_44:\n        /* \"@openzeppelin/contracts/security/Pausable.sol\":1662:1666  bool */\n      0x00\n        /* \"@openzeppelin/contracts/security/Pausable.sol\":1685:1692  _paused */\n      dup1\n      0x14\n      swap1\n      sload\n      swap1\n      0x0100\n      exp\n      swap1\n      div\n      0xff\n      and\n        /* \"@openzeppelin/contracts/security/Pausable.sol\":1678:1692  return _paused */\n      swap1\n      pop\n        /* \"@openzeppelin/contracts/security/Pausable.sol\":1615:1699  function paused() public view virtual returns (bool) {... */\n      swap1\n      jump\t// out\n        /* \"@openzeppelin/contracts/access/Ownable.sol\":1831:1932  function renounceOwnership() public virtual onlyOwner {... */\n    tag_48:\n        /* \"@openzeppelin/contracts/access/Ownable.sol\":1094:1107  _checkOwner() */\n      tag_82\n        /* \"@openzeppelin/contracts/access/Ownable.sol\":1094:1105  _checkOwner */\n      tag_69\n        /* \"@openzeppelin/contracts/access/Ownable.sol\":1094:1107  _checkOwner() */\n      jump\t// in\n    tag_82:\n        /* \"@openzeppelin/contracts/access/Ownable.sol\":1895:1925  _transferOwnership(address(0)) */\n      tag_84\n        /* \"@openzeppelin/contracts/access/Ownable.sol\":1922:1923  0 */\n      0x00\n        /* \"@openzeppelin/contracts/access/Ownable.sol\":1895:1913  _transferOwnership */\n      tag_85\n        /* \"@openzeppelin/contracts/access/Ownable.sol\":1895:1925  _transferOwnership(address(0)) */\n      jump\t// in\n    tag_84:\n        /* \"@openzeppelin/contracts/access/Ownable.sol\":1831:1932  function renounceOwnership() public virtual onlyOwner {... */\n      jump\t// out\n        /* \"Module4.sol\":1416:1477  function pause() public onlyOwner {... */\n    tag_50:\n        /* \"@openzeppelin/contracts/access/Ownable.sol\":1094:1107  _checkOwner() */\n      tag_87\n        /* \"@openzeppelin/contracts/access/Ownable.sol\":1094:1105  _checkOwner */\n      tag_69\n        /* \"@openzeppelin/contracts/access/Ownable.sol\":1094:1107  _checkOwner() */\n      jump\t// in\n    tag_87:\n        /* \"Module4.sol\":1461:1469  _pause() */\n      tag_89\n        /* \"Module4.sol\":1461:1467  _pause */\n      tag_90\n        /* \"Module4.sol\":1461:1469  _pause() */\n      jump\t// in\n    tag_89:\n        /* \"Module4.sol\":1416:1477  function pause() public onlyOwner {... */\n      jump\t// out\n        /* \"@openzeppelin/contracts/access/Ownable.sol\":1201:1286  function owner() public view virtual returns (address) {... */\n    tag_52:\n        /* \"@openzeppelin/contracts/access/Ownable.sol\":1247:1254  address */\n      0x00\n        /* \"@openzeppelin/contracts/access/Ownable.sol\":1273:1279  _owner */\n      dup1\n      0x00\n      swap1\n      sload\n      swap1\n      0x0100\n      exp\n      swap1\n      div\n      0xffffffffffffffffffffffffffffffffffffffff\n      and\n        /* \"@openzeppelin/contracts/access/Ownable.sol\":1266:1279  return _owner */\n      swap1\n      pop\n        /* \"@openzeppelin/contracts/access/Ownable.sol\":1201:1286  function owner() public view virtual returns (address) {... */\n      swap1\n      jump\t// out\n        /* \"Module4.sol\":269:305  string public constant symbol = \"FP\" */\n    tag_56:\n      mload(0x40)\n      dup1\n      0x40\n      add\n      0x40\n      mstore\n      dup1\n      0x02\n      dup2\n      mstore\n      0x20\n      add\n      0x4650000000000000000000000000000000000000000000000000000000000000\n      dup2\n      mstore\n      pop\n      dup2\n      jump\t// out\n        /* \"Module4.sol\":807:1048  function burn(address from, uint256 value) public onlyOwner {... */\n    tag_60:\n        /* \"@openzeppelin/contracts/access/Ownable.sol\":1094:1107  _checkOwner() */\n      tag_93\n        /* \"@openzeppelin/contracts/access/Ownable.sol\":1094:1105  _checkOwner */\n      tag_69\n        /* \"@openzeppelin/contracts/access/Ownable.sol\":1094:1107  _checkOwner() */\n      jump\t// in\n    tag_93:\n        /* \"Module4.sol\":904:909  value */\n      dup1\n        /* \"Module4.sol\":886:894  balances */\n      0x02\n        /* \"Module4.sol\":886:900  balances[from] */\n      0x00\n        /* \"Module4.sol\":895:899  from */\n      dup5\n        /* \"Module4.sol\":886:900  balances[from] */\n      0xffffffffffffffffffffffffffffffffffffffff\n      and\n      0xffffffffffffffffffffffffffffffffffffffff\n      and\n      dup2\n      mstore\n      0x20\n      add\n      swap1\n      dup2\n      mstore\n      0x20\n      add\n      0x00\n      keccak256\n      sload\n        /* \"Module4.sol\":886:909  balances[from] >= value */\n      lt\n      iszero\n        /* \"Module4.sol\":878:942  require(balances[from] >= value, \"The balance is insufficient.\") */\n      tag_95\n      jumpi\n      mload(0x40)\n      0x08c379a000000000000000000000000000000000000000000000000000000000\n      dup2\n      mstore\n      0x04\n      add\n      tag_96\n      swap1\n      tag_97\n      jump\t// in\n    tag_96:\n      mload(0x40)\n      dup1\n      swap2\n      sub\n      swap1\n      revert\n    tag_95:\n        /* \"Module4.sol\":971:976  value */\n      dup1\n        /* \"Module4.sol\":953:961  balances */\n      0x02\n        /* \"Module4.sol\":953:967  balances[from] */\n      0x00\n        /* \"Module4.sol\":962:966  from */\n      dup5\n        /* \"Module4.sol\":953:967  balances[from] */\n      0xffffffffffffffffffffffffffffffffffffffff\n      and\n      0xffffffffffffffffffffffffffffffffffffffff\n      and\n      dup2\n      mstore\n      0x20\n      add\n      swap1\n      dup2\n      mstore\n      0x20\n      add\n      0x00\n      keccak256\n      0x00\n        /* \"Module4.sol\":953:976  balances[from] -= value */\n      dup3\n      dup3\n      sload\n      tag_98\n      swap2\n      swap1\n      tag_99\n      jump\t// in\n    tag_98:\n      swap3\n      pop\n      pop\n      dup2\n      swap1\n      sstore\n      pop\n        /* \"Module4.sol\":1002:1007  value */\n      dup1\n        /* \"Module4.sol\":987:998  totalSupply */\n      0x01\n      0x00\n        /* \"Module4.sol\":987:1007  totalSupply -= value */\n      dup3\n      dup3\n      sload\n      tag_100\n      swap2\n      swap1\n      tag_99\n      jump\t// in\n    tag_100:\n      swap3\n      pop\n      pop\n      dup2\n      swap1\n      sstore\n      pop\n        /* \"Module4.sol\":1028:1032  from */\n      dup2\n        /* \"Module4.sol\":1023:1040  Burn(from, value) */\n      0xffffffffffffffffffffffffffffffffffffffff\n      and\n      0xcc16f5dbb4873280815c1ee09dbd06736cffcc184412cf7a71a0fdb75d397ca5\n        /* \"Module4.sol\":1034:1039  value */\n      dup3\n        /* \"Module4.sol\":1023:1040  Burn(from, value) */\n      mload(0x40)\n      tag_101\n      swap2\n      swap1\n      tag_27\n      jump\t// in\n    tag_101:\n      mload(0x40)\n      dup1\n      swap2\n      sub\n      swap1\n      log2\n        /* \"Module4.sol\":807:1048  function burn(address from, uint256 value) public onlyOwner {... */\n      pop\n      pop\n      jump\t// out\n        /* \"Module4.sol\":1056:1408  function transfer(address to, uint256 value) public whenNotPaused {... */\n    tag_63:\n        /* \"@openzeppelin/contracts/security/Pausable.sol\":1239:1258  _requireNotPaused() */\n      tag_103\n        /* \"@openzeppelin/contracts/security/Pausable.sol\":1239:1256  _requireNotPaused */\n      tag_104\n        /* \"@openzeppelin/contracts/security/Pausable.sol\":1239:1258  _requireNotPaused() */\n      jump\t// in\n    tag_103:\n        /* \"Module4.sol\":1165:1170  value */\n      dup1\n        /* \"Module4.sol\":1141:1149  balances */\n      0x02\n        /* \"Module4.sol\":1141:1161  balances[msg.sender] */\n      0x00\n        /* \"Module4.sol\":1150:1160  msg.sender */\n      caller\n        /* \"Module4.sol\":1141:1161  balances[msg.sender] */\n      0xffffffffffffffffffffffffffffffffffffffff\n      and\n      0xffffffffffffffffffffffffffffffffffffffff\n      and\n      dup2\n      mstore\n      0x20\n      add\n      swap1\n      dup2\n      mstore\n      0x20\n      add\n      0x00\n      keccak256\n      sload\n        /* \"Module4.sol\":1141:1170  balances[msg.sender] >= value */\n      lt\n      iszero\n        /* \"Module4.sol\":1133:1204  require(balances[msg.sender] >= value, \"Your balance is insufficient.\") */\n      tag_106\n      jumpi\n      mload(0x40)\n      0x08c379a000000000000000000000000000000000000000000000000000000000\n      dup2\n      mstore\n      0x04\n      add\n      tag_107\n      swap1\n      tag_108\n      jump\t// in\n    tag_107:\n      mload(0x40)\n      dup1\n      swap2\n      sub\n      swap1\n      revert\n    tag_106:\n        /* \"Module4.sol\":1237:1238  0 */\n      0x00\n        /* \"Module4.sol\":1223:1239  to != address(0) */\n      0xffffffffffffffffffffffffffffffffffffffff\n      and\n        /* \"Module4.sol\":1223:1225  to */\n      dup3\n        /* \"Module4.sol\":1223:1239  to != address(0) */\n      0xffffffffffffffffffffffffffffffffffffffff\n      and\n      sub\n        /* \"Module4.sol\":1215:1279  require(to != address(0), \"The recipient's address is invalid.\") */\n      tag_109\n      jumpi\n      mload(0x40)\n      0x08c379a000000000000000000000000000000000000000000000000000000000\n      dup2\n      mstore\n      0x04\n      add\n      tag_110\n      swap1\n      tag_111\n      jump\t// in\n    tag_110:\n      mload(0x40)\n      dup1\n      swap2\n      sub\n      swap1\n      revert\n    tag_109:\n        /* \"Module4.sol\":1316:1321  value */\n      dup1\n        /* \"Module4.sol\":1292:1300  balances */\n      0x02\n        /* \"Module4.sol\":1292:1312  balances[msg.sender] */\n      0x00\n        /* \"Module4.sol\":1301:1311  msg.sender */\n      caller\n        /* \"Module4.sol\":1292:1312  balances[msg.sender] */\n      0xffffffffffffffffffffffffffffffffffffffff\n      and\n      0xffffffffffffffffffffffffffffffffffffffff\n      and\n      dup2\n      mstore\n      0x20\n      add\n      swap1\n      dup2\n      mstore\n      0x20\n      add\n      0x00\n      keccak256\n      0x00\n        /* \"Module4.sol\":1292:1321  balances[msg.sender] -= value */\n      dup3\n      dup3\n      sload\n      tag_112\n      swap2\n      swap1\n      tag_99\n      jump\t// in\n    tag_112:\n      swap3\n      pop\n      pop\n      dup2\n      swap1\n      sstore\n      pop\n        /* \"Module4.sol\":1348:1353  value */\n      dup1\n        /* \"Module4.sol\":1332:1340  balances */\n      0x02\n        /* \"Module4.sol\":1332:1344  balances[to] */\n      0x00\n        /* \"Module4.sol\":1341:1343  to */\n      dup5\n        /* \"Module4.sol\":1332:1344  balances[to] */\n      0xffffffffffffffffffffffffffffffffffffffff\n      and\n      0xffffffffffffffffffffffffffffffffffffffff\n      and\n      dup2\n      mstore\n      0x20\n      add\n      swap1\n      dup2\n      mstore\n      0x20\n      add\n      0x00\n      keccak256\n      0x00\n        /* \"Module4.sol\":1332:1353  balances[to] += value */\n      dup3\n      dup3\n      sload\n      tag_113\n      swap2\n      swap1\n      tag_77\n      jump\t// in\n    tag_113:\n      swap3\n      pop\n      pop\n      dup2\n      swap1\n      sstore\n      pop\n        /* \"Module4.sol\":1390:1392  to */\n      dup2\n        /* \"Module4.sol\":1369:1400  Transfer(msg.sender, to, value) */\n      0xffffffffffffffffffffffffffffffffffffffff\n      and\n        /* \"Module4.sol\":1378:1388  msg.sender */\n      caller\n        /* \"Module4.sol\":1369:1400  Transfer(msg.sender, to, value) */\n      0xffffffffffffffffffffffffffffffffffffffff\n      and\n      0xddf252ad1be2c89b69c2b068fc378daa952ba7f163c4a11628f55a4df523b3ef\n        /* \"Module4.sol\":1394:1399  value */\n      dup4\n        /* \"Module4.sol\":1369:1400  Transfer(msg.sender, to, value) */\n      mload(0x40)\n      tag_114\n      swap2\n      swap1\n      tag_27\n      jump\t// in\n    tag_114:\n      mload(0x40)\n      dup1\n      swap2\n      sub\n      swap1\n      log3\n        /* \"Module4.sol\":1056:1408  function transfer(address to, uint256 value) public whenNotPaused {... */\n      pop\n      pop\n      jump\t// out\n        /* \"@openzeppelin/contracts/access/Ownable.sol\":2081:2279  function transferOwnership(address newOwner) public virtual onlyOwner {... */\n    tag_66:\n        /* \"@openzeppelin/contracts/access/Ownable.sol\":1094:1107  _checkOwner() */\n      tag_116\n        /* \"@openzeppelin/contracts/access/Ownable.sol\":1094:1105  _checkOwner */\n      tag_69\n        /* \"@openzeppelin/contracts/access/Ownable.sol\":1094:1107  _checkOwner() */\n      jump\t// in\n    tag_116:\n        /* \"@openzeppelin/contracts/access/Ownable.sol\":2189:2190  0 */\n      0x00\n        /* \"@openzeppelin/contracts/access/Ownable.sol\":2169:2191  newOwner != address(0) */\n      0xffffffffffffffffffffffffffffffffffffffff\n      and\n        /* \"@openzeppelin/contracts/access/Ownable.sol\":2169:2177  newOwner */\n      dup2\n        /* \"@openzeppelin/contracts/access/Ownable.sol\":2169:2191  newOwner != address(0) */\n      0xffffffffffffffffffffffffffffffffffffffff\n      and\n      sub\n        /* \"@openzeppelin/contracts/access/Ownable.sol\":2161:2234  require(newOwner != address(0), \"Ownable: new owner is the zero address\") */\n      tag_118\n      jumpi\n      mload(0x40)\n      0x08c379a000000000000000000000000000000000000000000000000000000000\n      dup2\n      mstore\n      0x04\n      add\n      tag_119\n      swap1\n      tag_120\n      jump\t// in\n    tag_119:\n      mload(0x40)\n      dup1\n      swap2\n      sub\n      swap1\n      revert\n    tag_118:\n        /* \"@openzeppelin/contracts/access/Ownable.sol\":2244:2272  _transferOwnership(newOwner) */\n      tag_121\n        /* \"@openzeppelin/contracts/access/Ownable.sol\":2263:2271  newOwner */\n      dup2\n        /* \"@openzeppelin/contracts/access/Ownable.sol\":2244:2262  _transferOwnership */\n      tag_85\n        /* \"@openzeppelin/contracts/access/Ownable.sol\":2244:2272  _transferOwnership(newOwner) */\n      jump\t// in\n    tag_121:\n        /* \"@openzeppelin/contracts/access/Ownable.sol\":2081:2279  function transferOwnership(address newOwner) public virtual onlyOwner {... */\n      pop\n      jump\t// out\n        /* \"@openzeppelin/contracts/access/Ownable.sol\":1359:1489  function _checkOwner() internal view virtual {... */\n    tag_69:\n        /* \"@openzeppelin/contracts/access/Ownable.sol\":1433:1445  _msgSender() */\n      tag_123\n        /* \"@openzeppelin/contracts/access/Ownable.sol\":1433:1443  _msgSender */\n      tag_124\n        /* \"@openzeppelin/contracts/access/Ownable.sol\":1433:1445  _msgSender() */\n      jump\t// in\n    tag_123:\n        /* \"@openzeppelin/contracts/access/Ownable.sol\":1422:1445  owner() == _msgSender() */\n      0xffffffffffffffffffffffffffffffffffffffff\n      and\n        /* \"@openzeppelin/contracts/access/Ownable.sol\":1422:1429  owner() */\n      tag_125\n        /* \"@openzeppelin/contracts/access/Ownable.sol\":1422:1427  owner */\n      tag_52\n        /* \"@openzeppelin/contracts/access/Ownable.sol\":1422:1429  owner() */\n      jump\t// in\n    tag_125:\n        /* \"@openzeppelin/contracts/access/Ownable.sol\":1422:1445  owner() == _msgSender() */\n      0xffffffffffffffffffffffffffffffffffffffff\n      and\n      eq\n        /* \"@openzeppelin/contracts/access/Ownable.sol\":1414:1482  require(owner() == _msgSender(), \"Ownable: caller is not the owner\") */\n      tag_126\n      jumpi\n      mload(0x40)\n      0x08c379a000000000000000000000000000000000000000000000000000000000\n      dup2\n      mstore\n      0x04\n      add\n      tag_127\n      swap1\n      tag_128\n      jump\t// in\n    tag_127:\n      mload(0x40)\n      dup1\n      swap2\n      sub\n      swap1\n      revert\n    tag_126:\n        /* \"@openzeppelin/contracts/access/Ownable.sol\":1359:1489  function _checkOwner() internal view virtual {... */\n      jump\t// out\n        /* \"@openzeppelin/contracts/security/Pausable.sol\":2433:2550  function _unpause() internal virtual whenPaused {... */\n    tag_72:\n        /* \"@openzeppelin/contracts/security/Pausable.sol\":1486:1502  _requirePaused() */\n      tag_130\n        /* \"@openzeppelin/contracts/security/Pausable.sol\":1486:1500  _requirePaused */\n      tag_131\n        /* \"@openzeppelin/contracts/security/Pausable.sol\":1486:1502  _requirePaused() */\n      jump\t// in\n    tag_130:\n        /* \"@openzeppelin/contracts/security/Pausable.sol\":2501:2506  false */\n      0x00\n        /* \"@openzeppelin/contracts/security/Pausable.sol\":2491:2498  _paused */\n      dup1\n      0x14\n        /* \"@openzeppelin/contracts/security/Pausable.sol\":2491:2506  _paused = false */\n      0x0100\n      exp\n      dup2\n      sload\n      dup2\n      0xff\n      mul\n      not\n      and\n      swap1\n      dup4\n      iszero\n      iszero\n      mul\n      or\n      swap1\n      sstore\n      pop\n        /* \"@openzeppelin/contracts/security/Pausable.sol\":2521:2543  Unpaused(_msgSender()) */\n      0x5db9ee0a495bf2e6ff9c91a7834c1ba4fdd244a5e8aa4e537bd38aeae4b073aa\n        /* \"@openzeppelin/contracts/security/Pausable.sol\":2530:2542  _msgSender() */\n      tag_133\n        /* \"@openzeppelin/contracts/security/Pausable.sol\":2530:2540  _msgSender */\n      tag_124\n        /* \"@openzeppelin/contracts/security/Pausable.sol\":2530:2542  _msgSender() */\n      jump\t// in\n    tag_133:\n        /* \"@openzeppelin/contracts/security/Pausable.sol\":2521:2543  Unpaused(_msgSender()) */\n      mload(0x40)\n      tag_134\n      swap2\n      swap1\n      tag_54\n      jump\t// in\n    tag_134:\n      mload(0x40)\n      dup1\n      swap2\n      sub\n      swap1\n      log1\n        /* \"@openzeppelin/contracts/security/Pausable.sol\":2433:2550  function _unpause() internal virtual whenPaused {... */\n      jump\t// out\n        /* \"@openzeppelin/contracts/access/Ownable.sol\":2433:2620  function _transferOwnership(address newOwner) internal virtual {... */\n    tag_85:\n        /* \"@openzeppelin/contracts/access/Ownable.sol\":2506:2522  address oldOwner */\n      0x00\n        /* \"@openzeppelin/contracts/access/Ownable.sol\":2525:2531  _owner */\n      dup1\n      0x00\n      swap1\n      sload\n      swap1\n      0x0100\n      exp\n      swap1\n      div\n      0xffffffffffffffffffffffffffffffffffffffff\n      and\n        /* \"@openzeppelin/contracts/access/Ownable.sol\":2506:2531  address oldOwner = _owner */\n      swap1\n      pop\n        /* \"@openzeppelin/contracts/access/Ownable.sol\":2550:2558  newOwner */\n      dup2\n        /* \"@openzeppelin/contracts/access/Ownable.sol\":2541:2547  _owner */\n      0x00\n      dup1\n        /* \"@openzeppelin/contracts/access/Ownable.sol\":2541:2558  _owner = newOwner */\n      0x0100\n      exp\n      dup2\n      sload\n      dup2\n      0xffffffffffffffffffffffffffffffffffffffff\n      mul\n      not\n      and\n      swap1\n      dup4\n      0xffffffffffffffffffffffffffffffffffffffff\n      and\n      mul\n      or\n      swap1\n      sstore\n      pop\n        /* \"@openzeppelin/contracts/access/Ownable.sol\":2604:2612  newOwner */\n      dup2\n        /* \"@openzeppelin/contracts/access/Ownable.sol\":2573:2613  OwnershipTransferred(oldOwner, newOwner) */\n      0xffffffffffffffffffffffffffffffffffffffff\n      and\n        /* \"@openzeppelin/contracts/access/Ownable.sol\":2594:2602  oldOwner */\n      dup2\n        /* \"@openzeppelin/contracts/access/Ownable.sol\":2573:2613  OwnershipTransferred(oldOwner, newOwner) */\n      0xffffffffffffffffffffffffffffffffffffffff\n      and\n      0x8be0079c531659141344cd1fd0a4f28419497f9722a3daafe3b4186f6b6457e0\n      mload(0x40)\n      mload(0x40)\n      dup1\n      swap2\n      sub\n      swap1\n      log3\n        /* \"@openzeppelin/contracts/access/Ownable.sol\":2496:2620  {... */\n      pop\n        /* \"@openzeppelin/contracts/access/Ownable.sol\":2433:2620  function _transferOwnership(address newOwner) internal virtual {... */\n      pop\n      jump\t// out\n        /* \"@openzeppelin/contracts/security/Pausable.sol\":2186:2301  function _pause() internal virtual whenNotPaused {... */\n    tag_90:\n        /* \"@openzeppelin/contracts/security/Pausable.sol\":1239:1258  _requireNotPaused() */\n      tag_137\n        /* \"@openzeppelin/contracts/security/Pausable.sol\":1239:1256  _requireNotPaused */\n      tag_104\n        /* \"@openzeppelin/contracts/security/Pausable.sol\":1239:1258  _requireNotPaused() */\n      jump\t// in\n    tag_137:\n        /* \"@openzeppelin/contracts/security/Pausable.sol\":2255:2259  true */\n      0x01\n        /* \"@openzeppelin/contracts/security/Pausable.sol\":2245:2252  _paused */\n      0x00\n      0x14\n        /* \"@openzeppelin/contracts/security/Pausable.sol\":2245:2259  _paused = true */\n      0x0100\n      exp\n      dup2\n      sload\n      dup2\n      0xff\n      mul\n      not\n      and\n      swap1\n      dup4\n      iszero\n      iszero\n      mul\n      or\n      swap1\n      sstore\n      pop\n        /* \"@openzeppelin/contracts/security/Pausable.sol\":2274:2294  Paused(_msgSender()) */\n      0x62e78cea01bee320cd4e420270b5ea74000d11b0c9f74754ebdbfc544b05a258\n        /* \"@openzeppelin/contracts/security/Pausable.sol\":2281:2293  _msgSender() */\n      tag_139\n        /* \"@openzeppelin/contracts/security/Pausable.sol\":2281:2291  _msgSender */\n      tag_124\n        /* \"@openzeppelin/contracts/security/Pausable.sol\":2281:2293  _msgSender() */\n      jump\t// in\n    tag_139:\n        /* \"@openzeppelin/contracts/security/Pausable.sol\":2274:2294  Paused(_msgSender()) */\n      mload(0x40)\n      tag_140\n      swap2\n      swap1\n      tag_54\n      jump\t// in\n    tag_140:\n      mload(0x40)\n      dup1\n      swap2\n      sub\n      swap1\n      log1\n        /* \"@openzeppelin/contracts/security/Pausable.sol\":2186:2301  function _pause() internal virtual whenNotPaused {... */\n      jump\t// out\n        /* \"@openzeppelin/contracts/security/Pausable.sol\":1767:1873  function _requireNotPaused() internal view virtual {... */\n    tag_104:\n        /* \"@openzeppelin/contracts/security/Pausable.sol\":1837:1845  paused() */\n      tag_142\n        /* \"@openzeppelin/contracts/security/Pausable.sol\":1837:1843  paused */\n      tag_44\n        /* \"@openzeppelin/contracts/security/Pausable.sol\":1837:1845  paused() */\n      jump\t// in\n    tag_142:\n        /* \"@openzeppelin/contracts/security/Pausable.sol\":1836:1845  !paused() */\n      iszero\n        /* \"@openzeppelin/contracts/security/Pausable.sol\":1828:1866  require(!paused(), \"Pausable: paused\") */\n      tag_143\n      jumpi\n      mload(0x40)\n      0x08c379a000000000000000000000000000000000000000000000000000000000\n      dup2\n      mstore\n      0x04\n      add\n      tag_144\n      swap1\n      tag_145\n      jump\t// in\n    tag_144:\n      mload(0x40)\n      dup1\n      swap2\n      sub\n      swap1\n      revert\n    tag_143:\n        /* \"@openzeppelin/contracts/security/Pausable.sol\":1767:1873  function _requireNotPaused() internal view virtual {... */\n      jump\t// out\n        /* \"@openzeppelin/contracts/utils/Context.sol\":640:736  function _msgSender() internal view virtual returns (address) {... */\n    tag_124:\n        /* \"@openzeppelin/contracts/utils/Context.sol\":693:700  address */\n      0x00\n        /* \"@openzeppelin/contracts/utils/Context.sol\":719:729  msg.sender */\n      caller\n        /* \"@openzeppelin/contracts/utils/Context.sol\":712:729  return msg.sender */\n      swap1\n      pop\n        /* \"@openzeppelin/contracts/utils/Context.sol\":640:736  function _msgSender() internal view virtual returns (address) {... */\n      swap1\n      jump\t// out\n        /* \"@openzeppelin/contracts/security/Pausable.sol\":1945:2051  function _requirePaused() internal view virtual {... */\n    tag_131:\n        /* \"@openzeppelin/contracts/security/Pausable.sol\":2011:2019  paused() */\n      tag_148\n        /* \"@openzeppelin/contracts/security/Pausable.sol\":2011:2017  paused */\n      tag_44\n        /* \"@openzeppelin/contracts/security/Pausable.sol\":2011:2019  paused() */\n      jump\t// in\n    tag_148:\n        /* \"@openzeppelin/contracts/security/Pausable.sol\":2003:2044  require(paused(), \"Pausable: not paused\") */\n      tag_149\n      jumpi\n      mload(0x40)\n      0x08c379a000000000000000000000000000000000000000000000000000000000\n      dup2\n      mstore\n      0x04\n      add\n      tag_150\n      swap1\n      tag_151\n      jump\t// in\n    tag_150:\n      mload(0x40)\n      dup1\n      swap2\n      sub\n      swap1\n      revert\n    tag_149:\n        /* \"@openzeppelin/contracts/security/Pausable.sol\":1945:2051  function _requirePaused() internal view virtual {... */\n      jump\t// out\n        /* \"#utility.yul\":7:106   */\n    tag_152:\n        /* \"#utility.yul\":59:65   */\n      0x00\n        /* \"#utility.yul\":93:98   */\n      dup2\n        /* \"#utility.yul\":87:99   */\n      mload\n        /* \"#utility.yul\":77:99   */\n      swap1\n      pop\n        /* \"#utility.yul\":7:106   */\n      swap2\n      swap1\n      pop\n      jump\t// out\n        /* \"#utility.yul\":112:281   */\n    tag_153:\n        /* \"#utility.yul\":196:207   */\n      0x00\n        /* \"#utility.yul\":230:236   */\n      dup3\n        /* \"#utility.yul\":225:228   */\n      dup3\n        /* \"#utility.yul\":218:237   */\n      mstore\n        /* \"#utility.yul\":270:274   */\n      0x20\n        /* \"#utility.yul\":265:268   */\n      dup3\n        /* \"#utility.yul\":261:275   */\n      add\n        /* \"#utility.yul\":246:275   */\n      swap1\n      pop\n        /* \"#utility.yul\":112:281   */\n      swap3\n      swap2\n      pop\n      pop\n      jump\t// out\n        /* \"#utility.yul\":287:533   */\n    tag_154:\n        /* \"#utility.yul\":368:369   */\n      0x00\n        /* \"#utility.yul\":378:491   */\n    tag_192:\n        /* \"#utility.yul\":392:398   */\n      dup4\n        /* \"#utility.yul\":389:390   */\n      dup2\n        /* \"#utility.yul\":386:399   */\n      lt\n        /* \"#utility.yul\":378:491   */\n      iszero\n      tag_194\n      jumpi\n        /* \"#utility.yul\":477:478   */\n      dup1\n        /* \"#utility.yul\":472:475   */\n      dup3\n        /* \"#utility.yul\":468:479   */\n      add\n        /* \"#utility.yul\":462:480   */\n      mload\n        /* \"#utility.yul\":458:459   */\n      dup2\n        /* \"#utility.yul\":453:456   */\n      dup5\n        /* \"#utility.yul\":449:460   */\n      add\n        /* \"#utility.yul\":442:481   */\n      mstore\n        /* \"#utility.yul\":414:416   */\n      0x20\n        /* \"#utility.yul\":411:412   */\n      dup2\n        /* \"#utility.yul\":407:417   */\n      add\n        /* \"#utility.yul\":402:417   */\n      swap1\n      pop\n        /* \"#utility.yul\":378:491   */\n      jump(tag_192)\n    tag_194:\n        /* \"#utility.yul\":525:526   */\n      0x00\n        /* \"#utility.yul\":516:522   */\n      dup5\n        /* \"#utility.yul\":511:514   */\n      dup5\n        /* \"#utility.yul\":507:523   */\n      add\n        /* \"#utility.yul\":500:527   */\n      mstore\n        /* \"#utility.yul\":349:533   */\n      pop\n        /* \"#utility.yul\":287:533   */\n      pop\n      pop\n      pop\n      jump\t// out\n        /* \"#utility.yul\":539:641   */\n    tag_155:\n        /* \"#utility.yul\":580:586   */\n      0x00\n        /* \"#utility.yul\":631:633   */\n      0x1f\n        /* \"#utility.yul\":627:634   */\n      not\n        /* \"#utility.yul\":622:624   */\n      0x1f\n        /* \"#utility.yul\":615:620   */\n      dup4\n        /* \"#utility.yul\":611:625   */\n      add\n        /* \"#utility.yul\":607:635   */\n      and\n        /* \"#utility.yul\":597:635   */\n      swap1\n      pop\n        /* \"#utility.yul\":539:641   */\n      swap2\n      swap1\n      pop\n      jump\t// out\n        /* \"#utility.yul\":647:1024   */\n    tag_156:\n        /* \"#utility.yul\":735:738   */\n      0x00\n        /* \"#utility.yul\":763:802   */\n      tag_197\n        /* \"#utility.yul\":796:801   */\n      dup3\n        /* \"#utility.yul\":763:802   */\n      tag_152\n      jump\t// in\n    tag_197:\n        /* \"#utility.yul\":818:889   */\n      tag_198\n        /* \"#utility.yul\":882:888   */\n      dup2\n        /* \"#utility.yul\":877:880   */\n      dup6\n        /* \"#utility.yul\":818:889   */\n      tag_153\n      jump\t// in\n    tag_198:\n        /* \"#utility.yul\":811:889   */\n      swap4\n      pop\n        /* \"#utility.yul\":898:963   */\n      tag_199\n        /* \"#utility.yul\":956:962   */\n      dup2\n        /* \"#utility.yul\":951:954   */\n      dup6\n        /* \"#utility.yul\":944:948   */\n      0x20\n        /* \"#utility.yul\":937:942   */\n      dup7\n        /* \"#utility.yul\":933:949   */\n      add\n        /* \"#utility.yul\":898:963   */\n      tag_154\n      jump\t// in\n    tag_199:\n        /* \"#utility.yul\":988:1017   */\n      tag_200\n        /* \"#utility.yul\":1010:1016   */\n      dup2\n        /* \"#utility.yul\":988:1017   */\n      tag_155\n      jump\t// in\n    tag_200:\n        /* \"#utility.yul\":983:986   */\n      dup5\n        /* \"#utility.yul\":979:1018   */\n      add\n        /* \"#utility.yul\":972:1018   */\n      swap2\n      pop\n        /* \"#utility.yul\":739:1024   */\n      pop\n        /* \"#utility.yul\":647:1024   */\n      swap3\n      swap2\n      pop\n      pop\n      jump\t// out\n        /* \"#utility.yul\":1030:1343   */\n    tag_23:\n        /* \"#utility.yul\":1143:1147   */\n      0x00\n        /* \"#utility.yul\":1181:1183   */\n      0x20\n        /* \"#utility.yul\":1170:1179   */\n      dup3\n        /* \"#utility.yul\":1166:1184   */\n      add\n        /* \"#utility.yul\":1158:1184   */\n      swap1\n      pop\n        /* \"#utility.yul\":1230:1239   */\n      dup2\n        /* \"#utility.yul\":1224:1228   */\n      dup2\n        /* \"#utility.yul\":1220:1240   */\n      sub\n        /* \"#utility.yul\":1216:1217   */\n      0x00\n        /* \"#utility.yul\":1205:1214   */\n      dup4\n        /* \"#utility.yul\":1201:1218   */\n      add\n        /* \"#utility.yul\":1194:1241   */\n      mstore\n        /* \"#utility.yul\":1258:1336   */\n      tag_202\n        /* \"#utility.yul\":1331:1335   */\n      dup2\n        /* \"#utility.yul\":1322:1328   */\n      dup5\n        /* \"#utility.yul\":1258:1336   */\n      tag_156\n      jump\t// in\n    tag_202:\n        /* \"#utility.yul\":1250:1336   */\n      swap1\n      pop\n        /* \"#utility.yul\":1030:1343   */\n      swap3\n      swap2\n      pop\n      pop\n      jump\t// out\n        /* \"#utility.yul\":1349:1426   */\n    tag_157:\n        /* \"#utility.yul\":1386:1393   */\n      0x00\n        /* \"#utility.yul\":1415:1420   */\n      dup2\n        /* \"#utility.yul\":1404:1420   */\n      swap1\n      pop\n        /* \"#utility.yul\":1349:1426   */\n      swap2\n      swap1\n      pop\n      jump\t// out\n        /* \"#utility.yul\":1432:1550   */\n    tag_158:\n        /* \"#utility.yul\":1519:1543   */\n      tag_205\n        /* \"#utility.yul\":1537:1542   */\n      dup2\n        /* \"#utility.yul\":1519:1543   */\n      tag_157\n      jump\t// in\n    tag_205:\n        /* \"#utility.yul\":1514:1517   */\n      dup3\n        /* \"#utility.yul\":1507:1544   */\n      mstore\n        /* \"#utility.yul\":1432:1550   */\n      pop\n      pop\n      jump\t// out\n        /* \"#utility.yul\":1556:1778   */\n    tag_27:\n        /* \"#utility.yul\":1649:1653   */\n      0x00\n        /* \"#utility.yul\":1687:1689   */\n      0x20\n        /* \"#utility.yul\":1676:1685   */\n      dup3\n        /* \"#utility.yul\":1672:1690   */\n      add\n        /* \"#utility.yul\":1664:1690   */\n      swap1\n      pop\n        /* \"#utility.yul\":1700:1771   */\n      tag_207\n        /* \"#utility.yul\":1768:1769   */\n      0x00\n        /* \"#utility.yul\":1757:1766   */\n      dup4\n        /* \"#utility.yul\":1753:1770   */\n      add\n        /* \"#utility.yul\":1744:1750   */\n      dup5\n        /* \"#utility.yul\":1700:1771   */\n      tag_158\n      jump\t// in\n    tag_207:\n        /* \"#utility.yul\":1556:1778   */\n      swap3\n      swap2\n      pop\n      pop\n      jump\t// out\n        /* \"#utility.yul\":1865:1982   */\n    tag_160:\n        /* \"#utility.yul\":1974:1975   */\n      0x00\n        /* \"#utility.yul\":1971:1972   */\n      dup1\n        /* \"#utility.yul\":1964:1976   */\n      revert\n        /* \"#utility.yul\":2111:2237   */\n    tag_162:\n        /* \"#utility.yul\":2148:2155   */\n      0x00\n        /* \"#utility.yul\":2188:2230   */\n      0xffffffffffffffffffffffffffffffffffffffff\n        /* \"#utility.yul\":2181:2186   */\n      dup3\n        /* \"#utility.yul\":2177:2231   */\n      and\n        /* \"#utility.yul\":2166:2231   */\n      swap1\n      pop\n        /* \"#utility.yul\":2111:2237   */\n      swap2\n      swap1\n      pop\n      jump\t// out\n        /* \"#utility.yul\":2243:2339   */\n    tag_163:\n        /* \"#utility.yul\":2280:2287   */\n      0x00\n        /* \"#utility.yul\":2309:2333   */\n      tag_213\n        /* \"#utility.yul\":2327:2332   */\n      dup3\n        /* \"#utility.yul\":2309:2333   */\n      tag_162\n      jump\t// in\n    tag_213:\n        /* \"#utility.yul\":2298:2333   */\n      swap1\n      pop\n        /* \"#utility.yul\":2243:2339   */\n      swap2\n      swap1\n      pop\n      jump\t// out\n        /* \"#utility.yul\":2345:2467   */\n    tag_164:\n        /* \"#utility.yul\":2418:2442   */\n      tag_215\n        /* \"#utility.yul\":2436:2441   */\n      dup2\n        /* \"#utility.yul\":2418:2442   */\n      tag_163\n      jump\t// in\n    tag_215:\n        /* \"#utility.yul\":2411:2416   */\n      dup2\n        /* \"#utility.yul\":2408:2443   */\n      eq\n        /* \"#utility.yul\":2398:2461   */\n      tag_216\n      jumpi\n        /* \"#utility.yul\":2457:2458   */\n      0x00\n        /* \"#utility.yul\":2454:2455   */\n      dup1\n        /* \"#utility.yul\":2447:2459   */\n      revert\n        /* \"#utility.yul\":2398:2461   */\n    tag_216:\n        /* \"#utility.yul\":2345:2467   */\n      pop\n      jump\t// out\n        /* \"#utility.yul\":2473:2612   */\n    tag_165:\n        /* \"#utility.yul\":2519:2524   */\n      0x00\n        /* \"#utility.yul\":2557:2563   */\n      dup2\n        /* \"#utility.yul\":2544:2564   */\n      calldataload\n        /* \"#utility.yul\":2535:2564   */\n      swap1\n      pop\n        /* \"#utility.yul\":2573:2606   */\n      tag_218\n        /* \"#utility.yul\":2600:2605   */\n      dup2\n        /* \"#utility.yul\":2573:2606   */\n      tag_164\n      jump\t// in\n    tag_218:\n        /* \"#utility.yul\":2473:2612   */\n      swap3\n      swap2\n      pop\n      pop\n      jump\t// out\n        /* \"#utility.yul\":2618:2947   */\n    tag_30:\n        /* \"#utility.yul\":2677:2683   */\n      0x00\n        /* \"#utility.yul\":2726:2728   */\n      0x20\n        /* \"#utility.yul\":2714:2723   */\n      dup3\n        /* \"#utility.yul\":2705:2712   */\n      dup5\n        /* \"#utility.yul\":2701:2724   */\n      sub\n        /* \"#utility.yul\":2697:2729   */\n      slt\n        /* \"#utility.yul\":2694:2813   */\n      iszero\n      tag_220\n      jumpi\n        /* \"#utility.yul\":2732:2811   */\n      tag_221\n      tag_160\n      jump\t// in\n    tag_221:\n        /* \"#utility.yul\":2694:2813   */\n    tag_220:\n        /* \"#utility.yul\":2852:2853   */\n      0x00\n        /* \"#utility.yul\":2877:2930   */\n      tag_222\n        /* \"#utility.yul\":2922:2929   */\n      dup5\n        /* \"#utility.yul\":2913:2919   */\n      dup3\n        /* \"#utility.yul\":2902:2911   */\n      dup6\n        /* \"#utility.yul\":2898:2920   */\n      add\n        /* \"#utility.yul\":2877:2930   */\n      tag_165\n      jump\t// in\n    tag_222:\n        /* \"#utility.yul\":2867:2930   */\n      swap2\n      pop\n        /* \"#utility.yul\":2823:2940   */\n      pop\n        /* \"#utility.yul\":2618:2947   */\n      swap3\n      swap2\n      pop\n      pop\n      jump\t// out\n        /* \"#utility.yul\":2953:3039   */\n    tag_166:\n        /* \"#utility.yul\":2988:2995   */\n      0x00\n        /* \"#utility.yul\":3028:3032   */\n      0xff\n        /* \"#utility.yul\":3021:3026   */\n      dup3\n        /* \"#utility.yul\":3017:3033   */\n      and\n        /* \"#utility.yul\":3006:3033   */\n      swap1\n      pop\n        /* \"#utility.yul\":2953:3039   */\n      swap2\n      swap1\n      pop\n      jump\t// out\n        /* \"#utility.yul\":3045:3157   */\n    tag_167:\n        /* \"#utility.yul\":3128:3150   */\n      tag_225\n        /* \"#utility.yul\":3144:3149   */\n      dup2\n        /* \"#utility.yul\":3128:3150   */\n      tag_166\n      jump\t// in\n    tag_225:\n        /* \"#utility.yul\":3123:3126   */\n      dup3\n        /* \"#utility.yul\":3116:3151   */\n      mstore\n        /* \"#utility.yul\":3045:3157   */\n      pop\n      pop\n      jump\t// out\n        /* \"#utility.yul\":3163:3377   */\n    tag_36:\n        /* \"#utility.yul\":3252:3256   */\n      0x00\n        /* \"#utility.yul\":3290:3292   */\n      0x20\n        /* \"#utility.yul\":3279:3288   */\n      dup3\n        /* \"#utility.yul\":3275:3293   */\n      add\n        /* \"#utility.yul\":3267:3293   */\n      swap1\n      pop\n        /* \"#utility.yul\":3303:3370   */\n      tag_227\n        /* \"#utility.yul\":3367:3368   */\n      0x00\n        /* \"#utility.yul\":3356:3365   */\n      dup4\n        /* \"#utility.yul\":3352:3369   */\n      add\n        /* \"#utility.yul\":3343:3349   */\n      dup5\n        /* \"#utility.yul\":3303:3370   */\n      tag_167\n      jump\t// in\n    tag_227:\n        /* \"#utility.yul\":3163:3377   */\n      swap3\n      swap2\n      pop\n      pop\n      jump\t// out\n        /* \"#utility.yul\":3383:3505   */\n    tag_168:\n        /* \"#utility.yul\":3456:3480   */\n      tag_229\n        /* \"#utility.yul\":3474:3479   */\n      dup2\n        /* \"#utility.yul\":3456:3480   */\n      tag_157\n      jump\t// in\n    tag_229:\n        /* \"#utility.yul\":3449:3454   */\n      dup2\n        /* \"#utility.yul\":3446:3481   */\n      eq\n        /* \"#utility.yul\":3436:3499   */\n      tag_230\n      jumpi\n        /* \"#utility.yul\":3495:3496   */\n      0x00\n        /* \"#utility.yul\":3492:3493   */\n      dup1\n        /* \"#utility.yul\":3485:3497   */\n      revert\n        /* \"#utility.yul\":3436:3499   */\n    tag_230:\n        /* \"#utility.yul\":3383:3505   */\n      pop\n      jump\t// out\n        /* \"#utility.yul\":3511:3650   */\n    tag_169:\n        /* \"#utility.yul\":3557:3562   */\n      0x00\n        /* \"#utility.yul\":3595:3601   */\n      dup2\n        /* \"#utility.yul\":3582:3602   */\n      calldataload\n        /* \"#utility.yul\":3573:3602   */\n      swap1\n      pop\n        /* \"#utility.yul\":3611:3644   */\n      tag_232\n        /* \"#utility.yul\":3638:3643   */\n      dup2\n        /* \"#utility.yul\":3611:3644   */\n      tag_168\n      jump\t// in\n    tag_232:\n        /* \"#utility.yul\":3511:3650   */\n      swap3\n      swap2\n      pop\n      pop\n      jump\t// out\n        /* \"#utility.yul\":3656:4130   */\n    tag_41:\n        /* \"#utility.yul\":3724:3730   */\n      0x00\n        /* \"#utility.yul\":3732:3738   */\n      dup1\n        /* \"#utility.yul\":3781:3783   */\n      0x40\n        /* \"#utility.yul\":3769:3778   */\n      dup4\n        /* \"#utility.yul\":3760:3767   */\n      dup6\n        /* \"#utility.yul\":3756:3779   */\n      sub\n        /* \"#utility.yul\":3752:3784   */\n      slt\n        /* \"#utility.yul\":3749:3868   */\n      iszero\n      tag_234\n      jumpi\n        /* \"#utility.yul\":3787:3866   */\n      tag_235\n      tag_160\n      jump\t// in\n    tag_235:\n        /* \"#utility.yul\":3749:3868   */\n    tag_234:\n        /* \"#utility.yul\":3907:3908   */\n      0x00\n        /* \"#utility.yul\":3932:3985   */\n      tag_236\n        /* \"#utility.yul\":3977:3984   */\n      dup6\n        /* \"#utility.yul\":3968:3974   */\n      dup3\n        /* \"#utility.yul\":3957:3966   */\n      dup7\n        /* \"#utility.yul\":3953:3975   */\n      add\n        /* \"#utility.yul\":3932:3985   */\n      tag_165\n      jump\t// in\n    tag_236:\n        /* \"#utility.yul\":3922:3985   */\n      swap3\n      pop\n        /* \"#utility.yul\":3878:3995   */\n      pop\n        /* \"#utility.yul\":4034:4036   */\n      0x20\n        /* \"#utility.yul\":4060:4113   */\n      tag_237\n        /* \"#utility.yul\":4105:4112   */\n      dup6\n        /* \"#utility.yul\":4096:4102   */\n      dup3\n        /* \"#utility.yul\":4085:4094   */\n      dup7\n        /* \"#utility.yul\":4081:4103   */\n      add\n        /* \"#utility.yul\":4060:4113   */\n      tag_169\n      jump\t// in\n    tag_237:\n        /* \"#utility.yul\":4050:4113   */\n      swap2\n      pop\n        /* \"#utility.yul\":4005:4123   */\n      pop\n        /* \"#utility.yul\":3656:4130   */\n      swap3\n      pop\n      swap3\n      swap1\n      pop\n      jump\t// out\n        /* \"#utility.yul\":4136:4226   */\n    tag_170:\n        /* \"#utility.yul\":4170:4177   */\n      0x00\n        /* \"#utility.yul\":4213:4218   */\n      dup2\n        /* \"#utility.yul\":4206:4219   */\n      iszero\n        /* \"#utility.yul\":4199:4220   */\n      iszero\n        /* \"#utility.yul\":4188:4220   */\n      swap1\n      pop\n        /* \"#utility.yul\":4136:4226   */\n      swap2\n      swap1\n      pop\n      jump\t// out\n        /* \"#utility.yul\":4232:4341   */\n    tag_171:\n        /* \"#utility.yul\":4313:4334   */\n      tag_240\n        /* \"#utility.yul\":4328:4333   */\n      dup2\n        /* \"#utility.yul\":4313:4334   */\n      tag_170\n      jump\t// in\n    tag_240:\n        /* \"#utility.yul\":4308:4311   */\n      dup3\n        /* \"#utility.yul\":4301:4335   */\n      mstore\n        /* \"#utility.yul\":4232:4341   */\n      pop\n      pop\n      jump\t// out\n        /* \"#utility.yul\":4347:4557   */\n    tag_46:\n        /* \"#utility.yul\":4434:4438   */\n      0x00\n        /* \"#utility.yul\":4472:4474   */\n      0x20\n        /* \"#utility.yul\":4461:4470   */\n      dup3\n        /* \"#utility.yul\":4457:4475   */\n      add\n        /* \"#utility.yul\":4449:4475   */\n      swap1\n      pop\n        /* \"#utility.yul\":4485:4550   */\n      tag_242\n        /* \"#utility.yul\":4547:4548   */\n      0x00\n        /* \"#utility.yul\":4536:4545   */\n      dup4\n        /* \"#utility.yul\":4532:4549   */\n      add\n        /* \"#utility.yul\":4523:4529   */\n      dup5\n        /* \"#utility.yul\":4485:4550   */\n      tag_171\n      jump\t// in\n    tag_242:\n        /* \"#utility.yul\":4347:4557   */\n      swap3\n      swap2\n      pop\n      pop\n      jump\t// out\n        /* \"#utility.yul\":4563:4681   */\n    tag_172:\n        /* \"#utility.yul\":4650:4674   */\n      tag_244\n        /* \"#utility.yul\":4668:4673   */\n      dup2\n        /* \"#utility.yul\":4650:4674   */\n      tag_163\n      jump\t// in\n    tag_244:\n        /* \"#utility.yul\":4645:4648   */\n      dup3\n        /* \"#utility.yul\":4638:4675   */\n      mstore\n        /* \"#utility.yul\":4563:4681   */\n      pop\n      pop\n      jump\t// out\n        /* \"#utility.yul\":4687:4909   */\n    tag_54:\n        /* \"#utility.yul\":4780:4784   */\n      0x00\n        /* \"#utility.yul\":4818:4820   */\n      0x20\n        /* \"#utility.yul\":4807:4816   */\n      dup3\n        /* \"#utility.yul\":4803:4821   */\n      add\n        /* \"#utility.yul\":4795:4821   */\n      swap1\n      pop\n        /* \"#utility.yul\":4831:4902   */\n      tag_246\n        /* \"#utility.yul\":4899:4900   */\n      0x00\n        /* \"#utility.yul\":4888:4897   */\n      dup4\n        /* \"#utility.yul\":4884:4901   */\n      add\n        /* \"#utility.yul\":4875:4881   */\n      dup5\n        /* \"#utility.yul\":4831:4902   */\n      tag_172\n      jump\t// in\n    tag_246:\n        /* \"#utility.yul\":4687:4909   */\n      swap3\n      swap2\n      pop\n      pop\n      jump\t// out\n        /* \"#utility.yul\":4915:5095   */\n    tag_173:\n        /* \"#utility.yul\":4963:5040   */\n      0x4e487b7100000000000000000000000000000000000000000000000000000000\n        /* \"#utility.yul\":4960:4961   */\n      0x00\n        /* \"#utility.yul\":4953:5041   */\n      mstore\n        /* \"#utility.yul\":5060:5064   */\n      0x11\n        /* \"#utility.yul\":5057:5058   */\n      0x04\n        /* \"#utility.yul\":5050:5065   */\n      mstore\n        /* \"#utility.yul\":5084:5088   */\n      0x24\n        /* \"#utility.yul\":5081:5082   */\n      0x00\n        /* \"#utility.yul\":5074:5089   */\n      revert\n        /* \"#utility.yul\":5101:5292   */\n    tag_77:\n        /* \"#utility.yul\":5141:5144   */\n      0x00\n        /* \"#utility.yul\":5160:5180   */\n      tag_249\n        /* \"#utility.yul\":5178:5179   */\n      dup3\n        /* \"#utility.yul\":5160:5180   */\n      tag_157\n      jump\t// in\n    tag_249:\n        /* \"#utility.yul\":5155:5180   */\n      swap2\n      pop\n        /* \"#utility.yul\":5194:5214   */\n      tag_250\n        /* \"#utility.yul\":5212:5213   */\n      dup4\n        /* \"#utility.yul\":5194:5214   */\n      tag_157\n      jump\t// in\n    tag_250:\n        /* \"#utility.yul\":5189:5214   */\n      swap3\n      pop\n        /* \"#utility.yul\":5237:5238   */\n      dup3\n        /* \"#utility.yul\":5234:5235   */\n      dup3\n        /* \"#utility.yul\":5230:5239   */\n      add\n        /* \"#utility.yul\":5223:5239   */\n      swap1\n      pop\n        /* \"#utility.yul\":5258:5261   */\n      dup1\n        /* \"#utility.yul\":5255:5256   */\n      dup3\n        /* \"#utility.yul\":5252:5262   */\n      gt\n        /* \"#utility.yul\":5249:5285   */\n      iszero\n      tag_251\n      jumpi\n        /* \"#utility.yul\":5265:5283   */\n      tag_252\n      tag_173\n      jump\t// in\n    tag_252:\n        /* \"#utility.yul\":5249:5285   */\n    tag_251:\n        /* \"#utility.yul\":5101:5292   */\n      swap3\n      swap2\n      pop\n      pop\n      jump\t// out\n        /* \"#utility.yul\":5298:5476   */\n    tag_174:\n        /* \"#utility.yul\":5438:5468   */\n      0x5468652062616c616e636520697320696e73756666696369656e742e00000000\n        /* \"#utility.yul\":5434:5435   */\n      0x00\n        /* \"#utility.yul\":5426:5432   */\n      dup3\n        /* \"#utility.yul\":5422:5436   */\n      add\n        /* \"#utility.yul\":5415:5469   */\n      mstore\n        /* \"#utility.yul\":5298:5476   */\n      pop\n      jump\t// out\n        /* \"#utility.yul\":5482:5848   */\n    tag_175:\n        /* \"#utility.yul\":5624:5627   */\n      0x00\n        /* \"#utility.yul\":5645:5712   */\n      tag_255\n        /* \"#utility.yul\":5709:5711   */\n      0x1c\n        /* \"#utility.yul\":5704:5707   */\n      dup4\n        /* \"#utility.yul\":5645:5712   */\n      tag_153\n      jump\t// in\n    tag_255:\n        /* \"#utility.yul\":5638:5712   */\n      swap2\n      pop\n        /* \"#utility.yul\":5721:5814   */\n      tag_256\n        /* \"#utility.yul\":5810:5813   */\n      dup3\n        /* \"#utility.yul\":5721:5814   */\n      tag_174\n      jump\t// in\n    tag_256:\n        /* \"#utility.yul\":5839:5841   */\n      0x20\n        /* \"#utility.yul\":5834:5837   */\n      dup3\n        /* \"#utility.yul\":5830:5842   */\n      add\n        /* \"#utility.yul\":5823:5842   */\n      swap1\n      pop\n        /* \"#utility.yul\":5482:5848   */\n      swap2\n      swap1\n      pop\n      jump\t// out\n        /* \"#utility.yul\":5854:6273   */\n    tag_97:\n        /* \"#utility.yul\":6020:6024   */\n      0x00\n        /* \"#utility.yul\":6058:6060   */\n      0x20\n        /* \"#utility.yul\":6047:6056   */\n      dup3\n        /* \"#utility.yul\":6043:6061   */\n      add\n        /* \"#utility.yul\":6035:6061   */\n      swap1\n      pop\n        /* \"#utility.yul\":6107:6116   */\n      dup2\n        /* \"#utility.yul\":6101:6105   */\n      dup2\n        /* \"#utility.yul\":6097:6117   */\n      sub\n        /* \"#utility.yul\":6093:6094   */\n      0x00\n        /* \"#utility.yul\":6082:6091   */\n      dup4\n        /* \"#utility.yul\":6078:6095   */\n      add\n        /* \"#utility.yul\":6071:6118   */\n      mstore\n        /* \"#utility.yul\":6135:6266   */\n      tag_258\n        /* \"#utility.yul\":6261:6265   */\n      dup2\n        /* \"#utility.yul\":6135:6266   */\n      tag_175\n      jump\t// in\n    tag_258:\n        /* \"#utility.yul\":6127:6266   */\n      swap1\n      pop\n        /* \"#utility.yul\":5854:6273   */\n      swap2\n      swap1\n      pop\n      jump\t// out\n        /* \"#utility.yul\":6279:6473   */\n    tag_99:\n        /* \"#utility.yul\":6319:6323   */\n      0x00\n        /* \"#utility.yul\":6339:6359   */\n      tag_260\n        /* \"#utility.yul\":6357:6358   */\n      dup3\n        /* \"#utility.yul\":6339:6359   */\n      tag_157\n      jump\t// in\n    tag_260:\n        /* \"#utility.yul\":6334:6359   */\n      swap2\n      pop\n        /* \"#utility.yul\":6373:6393   */\n      tag_261\n        /* \"#utility.yul\":6391:6392   */\n      dup4\n        /* \"#utility.yul\":6373:6393   */\n      tag_157\n      jump\t// in\n    tag_261:\n        /* \"#utility.yul\":6368:6393   */\n      swap3\n      pop\n        /* \"#utility.yul\":6417:6418   */\n      dup3\n        /* \"#utility.yul\":6414:6415   */\n      dup3\n        /* \"#utility.yul\":6410:6419   */\n      sub\n        /* \"#utility.yul\":6402:6419   */\n      swap1\n      pop\n        /* \"#utility.yul\":6441:6442   */\n      dup2\n        /* \"#utility.yul\":6435:6439   */\n      dup2\n        /* \"#utility.yul\":6432:6443   */\n      gt\n        /* \"#utility.yul\":6429:6466   */\n      iszero\n      tag_262\n      jumpi\n        /* \"#utility.yul\":6446:6464   */\n      tag_263\n      tag_173\n      jump\t// in\n    tag_263:\n        /* \"#utility.yul\":6429:6466   */\n    tag_262:\n        /* \"#utility.yul\":6279:6473   */\n      swap3\n      swap2\n      pop\n      pop\n      jump\t// out\n        /* \"#utility.yul\":6479:6658   */\n    tag_176:\n        /* \"#utility.yul\":6619:6650   */\n      0x596f75722062616c616e636520697320696e73756666696369656e742e000000\n        /* \"#utility.yul\":6615:6616   */\n      0x00\n        /* \"#utility.yul\":6607:6613   */\n      dup3\n        /* \"#utility.yul\":6603:6617   */\n      add\n        /* \"#utility.yul\":6596:6651   */\n      mstore\n        /* \"#utility.yul\":6479:6658   */\n      pop\n      jump\t// out\n        /* \"#utility.yul\":6664:7030   */\n    tag_177:\n        /* \"#utility.yul\":6806:6809   */\n      0x00\n        /* \"#utility.yul\":6827:6894   */\n      tag_266\n        /* \"#utility.yul\":6891:6893   */\n      0x1d\n        /* \"#utility.yul\":6886:6889   */\n      dup4\n        /* \"#utility.yul\":6827:6894   */\n      tag_153\n      jump\t// in\n    tag_266:\n        /* \"#utility.yul\":6820:6894   */\n      swap2\n      pop\n        /* \"#utility.yul\":6903:6996   */\n      tag_267\n        /* \"#utility.yul\":6992:6995   */\n      dup3\n        /* \"#utility.yul\":6903:6996   */\n      tag_176\n      jump\t// in\n    tag_267:\n        /* \"#utility.yul\":7021:7023   */\n      0x20\n        /* \"#utility.yul\":7016:7019   */\n      dup3\n        /* \"#utility.yul\":7012:7024   */\n      add\n        /* \"#utility.yul\":7005:7024   */\n      swap1\n      pop\n        /* \"#utility.yul\":6664:7030   */\n      swap2\n      swap1\n      pop\n      jump\t// out\n        /* \"#utility.yul\":7036:7455   */\n    tag_108:\n        /* \"#utility.yul\":7202:7206   */\n      0x00\n        /* \"#utility.yul\":7240:7242   */\n      0x20\n        /* \"#utility.yul\":7229:7238   */\n      dup3\n        /* \"#utility.yul\":7225:7243   */\n      add\n        /* \"#utility.yul\":7217:7243   */\n      swap1\n      pop\n        /* \"#utility.yul\":7289:7298   */\n      dup2\n        /* \"#utility.yul\":7283:7287   */\n      dup2\n        /* \"#utility.yul\":7279:7299   */\n      sub\n        /* \"#utility.yul\":7275:7276   */\n      0x00\n        /* \"#utility.yul\":7264:7273   */\n      dup4\n        /* \"#utility.yul\":7260:7277   */\n      add\n        /* \"#utility.yul\":7253:7300   */\n      mstore\n        /* \"#utility.yul\":7317:7448   */\n      tag_269\n        /* \"#utility.yul\":7443:7447   */\n      dup2\n        /* \"#utility.yul\":7317:7448   */\n      tag_177\n      jump\t// in\n    tag_269:\n        /* \"#utility.yul\":7309:7448   */\n      swap1\n      pop\n        /* \"#utility.yul\":7036:7455   */\n      swap2\n      swap1\n      pop\n      jump\t// out\n        /* \"#utility.yul\":7461:7683   */\n    tag_178:\n        /* \"#utility.yul\":7601:7635   */\n      0x54686520726563697069656e742773206164647265737320697320696e76616c\n        /* \"#utility.yul\":7597:7598   */\n      0x00\n        /* \"#utility.yul\":7589:7595   */\n      dup3\n        /* \"#utility.yul\":7585:7599   */\n      add\n        /* \"#utility.yul\":7578:7636   */\n      mstore\n        /* \"#utility.yul\":7670:7675   */\n      0x69642e0000000000000000000000000000000000000000000000000000000000\n        /* \"#utility.yul\":7665:7667   */\n      0x20\n        /* \"#utility.yul\":7657:7663   */\n      dup3\n        /* \"#utility.yul\":7653:7668   */\n      add\n        /* \"#utility.yul\":7646:7676   */\n      mstore\n        /* \"#utility.yul\":7461:7683   */\n      pop\n      jump\t// out\n        /* \"#utility.yul\":7689:8055   */\n    tag_179:\n        /* \"#utility.yul\":7831:7834   */\n      0x00\n        /* \"#utility.yul\":7852:7919   */\n      tag_272\n        /* \"#utility.yul\":7916:7918   */\n      0x23\n        /* \"#utility.yul\":7911:7914   */\n      dup4\n        /* \"#utility.yul\":7852:7919   */\n      tag_153\n      jump\t// in\n    tag_272:\n        /* \"#utility.yul\":7845:7919   */\n      swap2\n      pop\n        /* \"#utility.yul\":7928:8021   */\n      tag_273\n        /* \"#utility.yul\":8017:8020   */\n      dup3\n        /* \"#utility.yul\":7928:8021   */\n      tag_178\n      jump\t// in\n    tag_273:\n        /* \"#utility.yul\":8046:8048   */\n      0x40\n        /* \"#utility.yul\":8041:8044   */\n      dup3\n        /* \"#utility.yul\":8037:8049   */\n      add\n        /* \"#utility.yul\":8030:8049   */\n      swap1\n      pop\n        /* \"#utility.yul\":7689:8055   */\n      swap2\n      swap1\n      pop\n      jump\t// out\n        /* \"#utility.yul\":8061:8480   */\n    tag_111:\n        /* \"#utility.yul\":8227:8231   */\n      0x00\n        /* \"#utility.yul\":8265:8267   */\n      0x20\n        /* \"#utility.yul\":8254:8263   */\n      dup3\n        /* \"#utility.yul\":8250:8268   */\n      add\n        /* \"#utility.yul\":8242:8268   */\n      swap1\n      pop\n        /* \"#utility.yul\":8314:8323   */\n      dup2\n        /* \"#utility.yul\":8308:8312   */\n      dup2\n        /* \"#utility.yul\":8304:8324   */\n      sub\n        /* \"#utility.yul\":8300:8301   */\n      0x00\n        /* \"#utility.yul\":8289:8298   */\n      dup4\n        /* \"#utility.yul\":8285:8302   */\n      add\n        /* \"#utility.yul\":8278:8325   */\n      mstore\n        /* \"#utility.yul\":8342:8473   */\n      tag_275\n        /* \"#utility.yul\":8468:8472   */\n      dup2\n        /* \"#utility.yul\":8342:8473   */\n      tag_179\n      jump\t// in\n    tag_275:\n        /* \"#utility.yul\":8334:8473   */\n      swap1\n      pop\n        /* \"#utility.yul\":8061:8480   */\n      swap2\n      swap1\n      pop\n      jump\t// out\n        /* \"#utility.yul\":8486:8711   */\n    tag_180:\n        /* \"#utility.yul\":8626:8660   */\n      0x4f776e61626c653a206e6577206f776e657220697320746865207a65726f2061\n        /* \"#utility.yul\":8622:8623   */\n      0x00\n        /* \"#utility.yul\":8614:8620   */\n      dup3\n        /* \"#utility.yul\":8610:8624   */\n      add\n        /* \"#utility.yul\":8603:8661   */\n      mstore\n        /* \"#utility.yul\":8695:8703   */\n      0x6464726573730000000000000000000000000000000000000000000000000000\n        /* \"#utility.yul\":8690:8692   */\n      0x20\n        /* \"#utility.yul\":8682:8688   */\n      dup3\n        /* \"#utility.yul\":8678:8693   */\n      add\n        /* \"#utility.yul\":8671:8704   */\n      mstore\n        /* \"#utility.yul\":8486:8711   */\n      pop\n      jump\t// out\n        /* \"#utility.yul\":8717:9083   */\n    tag_181:\n        /* \"#utility.yul\":8859:8862   */\n      0x00\n        /* \"#utility.yul\":8880:8947   */\n      tag_278\n        /* \"#utility.yul\":8944:8946   */\n      0x26\n        /* \"#utility.yul\":8939:8942   */\n      dup4\n        /* \"#utility.yul\":8880:8947   */\n      tag_153\n      jump\t// in\n    tag_278:\n        /* \"#utility.yul\":8873:8947   */\n      swap2\n      pop\n        /* \"#utility.yul\":8956:9049   */\n      tag_279\n        /* \"#utility.yul\":9045:9048   */\n      dup3\n        /* \"#utility.yul\":8956:9049   */\n      tag_180\n      jump\t// in\n    tag_279:\n        /* \"#utility.yul\":9074:9076   */\n      0x40\n        /* \"#utility.yul\":9069:9072   */\n      dup3\n        /* \"#utility.yul\":9065:9077   */\n      add\n        /* \"#utility.yul\":9058:9077   */\n      swap1\n      pop\n        /* \"#utility.yul\":8717:9083   */\n      swap2\n      swap1\n      pop\n      jump\t// out\n        /* \"#utility.yul\":9089:9508   */\n    tag_120:\n        /* \"#utility.yul\":9255:9259   */\n      0x00\n        /* \"#utility.yul\":9293:9295   */\n      0x20\n        /* \"#utility.yul\":9282:9291   */\n      dup3\n        /* \"#utility.yul\":9278:9296   */\n      add\n        /* \"#utility.yul\":9270:9296   */\n      swap1\n      pop\n        /* \"#utility.yul\":9342:9351   */\n      dup2\n        /* \"#utility.yul\":9336:9340   */\n      dup2\n        /* \"#utility.yul\":9332:9352   */\n      sub\n        /* \"#utility.yul\":9328:9329   */\n      0x00\n        /* \"#utility.yul\":9317:9326   */\n      dup4\n        /* \"#utility.yul\":9313:9330   */\n      add\n        /* \"#utility.yul\":9306:9353   */\n      mstore\n        /* \"#utility.yul\":9370:9501   */\n      tag_281\n        /* \"#utility.yul\":9496:9500   */\n      dup2\n        /* \"#utility.yul\":9370:9501   */\n      tag_181\n      jump\t// in\n    tag_281:\n        /* \"#utility.yul\":9362:9501   */\n      swap1\n      pop\n        /* \"#utility.yul\":9089:9508   */\n      swap2\n      swap1\n      pop\n      jump\t// out\n        /* \"#utility.yul\":9514:9696   */\n    tag_182:\n        /* \"#utility.yul\":9654:9688   */\n      0x4f776e61626c653a2063616c6c6572206973206e6f7420746865206f776e6572\n        /* \"#utility.yul\":9650:9651   */\n      0x00\n        /* \"#utility.yul\":9642:9648   */\n      dup3\n        /* \"#utility.yul\":9638:9652   */\n      add\n        /* \"#utility.yul\":9631:9689   */\n      mstore\n        /* \"#utility.yul\":9514:9696   */\n      pop\n      jump\t// out\n        /* \"#utility.yul\":9702:10068   */\n    tag_183:\n        /* \"#utility.yul\":9844:9847   */\n      0x00\n        /* \"#utility.yul\":9865:9932   */\n      tag_284\n        /* \"#utility.yul\":9929:9931   */\n      0x20\n        /* \"#utility.yul\":9924:9927   */\n      dup4\n        /* \"#utility.yul\":9865:9932   */\n      tag_153\n      jump\t// in\n    tag_284:\n        /* \"#utility.yul\":9858:9932   */\n      swap2\n      pop\n        /* \"#utility.yul\":9941:10034   */\n      tag_285\n        /* \"#utility.yul\":10030:10033   */\n      dup3\n        /* \"#utility.yul\":9941:10034   */\n      tag_182\n      jump\t// in\n    tag_285:\n        /* \"#utility.yul\":10059:10061   */\n      0x20\n        /* \"#utility.yul\":10054:10057   */\n      dup3\n        /* \"#utility.yul\":10050:10062   */\n      add\n        /* \"#utility.yul\":10043:10062   */\n      swap1\n      pop\n        /* \"#utility.yul\":9702:10068   */\n      swap2\n      swap1\n      pop\n      jump\t// out\n        /* \"#utility.yul\":10074:10493   */\n    tag_128:\n        /* \"#utility.yul\":10240:10244   */\n      0x00\n        /* \"#utility.yul\":10278:10280   */\n      0x20\n        /* \"#utility.yul\":10267:10276   */\n      dup3\n        /* \"#utility.yul\":10263:10281   */\n      add\n        /* \"#utility.yul\":10255:10281   */\n      swap1\n      pop\n        /* \"#utility.yul\":10327:10336   */\n      dup2\n        /* \"#utility.yul\":10321:10325   */\n      dup2\n        /* \"#utility.yul\":10317:10337   */\n      sub\n        /* \"#utility.yul\":10313:10314   */\n      0x00\n        /* \"#utility.yul\":10302:10311   */\n      dup4\n        /* \"#utility.yul\":10298:10315   */\n      add\n        /* \"#utility.yul\":10291:10338   */\n      mstore\n        /* \"#utility.yul\":10355:10486   */\n      tag_287\n        /* \"#utility.yul\":10481:10485   */\n      dup2\n        /* \"#utility.yul\":10355:10486   */\n      tag_183\n      jump\t// in\n    tag_287:\n        /* \"#utility.yul\":10347:10486   */\n      swap1\n      pop\n        /* \"#utility.yul\":10074:10493   */\n      swap2\n      swap1\n      pop\n      jump\t// out\n        /* \"#utility.yul\":10499:10665   */\n    tag_184:\n        /* \"#utility.yul\":10639:10657   */\n      0x5061757361626c653a2070617573656400000000000000000000000000000000\n        /* \"#utility.yul\":10635:10636   */\n      0x00\n        /* \"#utility.yul\":10627:10633   */\n      dup3\n        /* \"#utility.yul\":10623:10637   */\n      add\n        /* \"#utility.yul\":10616:10658   */\n      mstore\n        /* \"#utility.yul\":10499:10665   */\n      pop\n      jump\t// out\n        /* \"#utility.yul\":10671:11037   */\n    tag_185:\n        /* \"#utility.yul\":10813:10816   */\n      0x00\n        /* \"#utility.yul\":10834:10901   */\n      tag_290\n        /* \"#utility.yul\":10898:10900   */\n      0x10\n        /* \"#utility.yul\":10893:10896   */\n      dup4\n        /* \"#utility.yul\":10834:10901   */\n      tag_153\n      jump\t// in\n    tag_290:\n        /* \"#utility.yul\":10827:10901   */\n      swap2\n      pop\n        /* \"#utility.yul\":10910:11003   */\n      tag_291\n        /* \"#utility.yul\":10999:11002   */\n      dup3\n        /* \"#utility.yul\":10910:11003   */\n      tag_184\n      jump\t// in\n    tag_291:\n        /* \"#utility.yul\":11028:11030   */\n      0x20\n        /* \"#utility.yul\":11023:11026   */\n      dup3\n        /* \"#utility.yul\":11019:11031   */\n      add\n        /* \"#utility.yul\":11012:11031   */\n      swap1\n      pop\n        /* \"#utility.yul\":10671:11037   */\n      swap2\n      swap1\n      pop\n      jump\t// out\n        /* \"#utility.yul\":11043:11462   */\n    tag_145:\n        /* \"#utility.yul\":11209:11213   */\n      0x00\n        /* \"#utility.yul\":11247:11249   */\n      0x20\n        /* \"#utility.yul\":11236:11245   */\n      dup3\n        /* \"#utility.yul\":11232:11250   */\n      add\n        /* \"#utility.yul\":11224:11250   */\n      swap1\n      pop\n        /* \"#utility.yul\":11296:11305   */\n      dup2\n        /* \"#utility.yul\":11290:11294   */\n      dup2\n        /* \"#utility.yul\":11286:11306   */\n      sub\n        /* \"#utility.yul\":11282:11283   */\n      0x00\n        /* \"#utility.yul\":11271:11280   */\n      dup4\n        /* \"#utility.yul\":11267:11284   */\n      add\n        /* \"#utility.yul\":11260:11307   */\n      mstore\n        /* \"#utility.yul\":11324:11455   */\n      tag_293\n        /* \"#utility.yul\":11450:11454   */\n      dup2\n        /* \"#utility.yul\":11324:11455   */\n      tag_185\n      jump\t// in\n    tag_293:\n        /* \"#utility.yul\":11316:11455   */\n      swap1\n      pop\n        /* \"#utility.yul\":11043:11462   */\n      swap2\n      swap1\n      pop\n      jump\t// out\n        /* \"#utility.yul\":11468:11638   */\n    tag_186:\n        /* \"#utility.yul\":11608:11630   */\n      0x5061757361626c653a206e6f7420706175736564000000000000000000000000\n        /* \"#utility.yul\":11604:11605   */\n      0x00\n        /* \"#utility.yul\":11596:11602   */\n      dup3\n        /* \"#utility.yul\":11592:11606   */\n      add\n        /* \"#utility.yul\":11585:11631   */\n      mstore\n        /* \"#utility.yul\":11468:11638   */\n      pop\n      jump\t// out\n        /* \"#utility.yul\":11644:12010   */\n    tag_187:\n        /* \"#utility.yul\":11786:11789   */\n      0x00\n        /* \"#utility.yul\":11807:11874   */\n      tag_296\n        /* \"#utility.yul\":11871:11873   */\n      0x14\n        /* \"#utility.yul\":11866:11869   */\n      dup4\n        /* \"#utility.yul\":11807:11874   */\n      tag_153\n      jump\t// in\n    tag_296:\n        /* \"#utility.yul\":11800:11874   */\n      swap2\n      pop\n        /* \"#utility.yul\":11883:11976   */\n      tag_297\n        /* \"#utility.yul\":11972:11975   */\n      dup3\n        /* \"#utility.yul\":11883:11976   */\n      tag_186\n      jump\t// in\n    tag_297:\n        /* \"#utility.yul\":12001:12003   */\n      0x20\n        /* \"#utility.yul\":11996:11999   */\n      dup3\n        /* \"#utility.yul\":11992:12004   */\n      add\n        /* \"#utility.yul\":11985:12004   */\n      swap1\n      pop\n        /* \"#utility.yul\":11644:12010   */\n      swap2\n      swap1\n      pop\n      jump\t// out\n        /* \"#utility.yul\":12016:12435   */\n    tag_151:\n        /* \"#utility.yul\":12182:12186   */\n      0x00\n        /* \"#utility.yul\":12220:12222   */\n      0x20\n        /* \"#utility.yul\":12209:12218   */\n      dup3\n        /* \"#utility.yul\":12205:12223   */\n      add\n        /* \"#utility.yul\":12197:12223   */\n      swap1\n      pop\n        /* \"#utility.yul\":12269:12278   */\n      dup2\n        /* \"#utility.yul\":12263:12267   */\n      dup2\n        /* \"#utility.yul\":12259:12279   */\n      sub\n        /* \"#utility.yul\":12255:12256   */\n      0x00\n        /* \"#utility.yul\":12244:12253   */\n      dup4\n        /* \"#utility.yul\":12240:12257   */\n      add\n        /* \"#utility.yul\":12233:12280   */\n      mstore\n        /* \"#utility.yul\":12297:12428   */\n      tag_299\n        /* \"#utility.yul\":12423:12427   */\n      dup2\n        /* \"#utility.yul\":12297:12428   */\n      tag_187\n      jump\t// in\n    tag_299:\n        /* \"#utility.yul\":12289:12428   */\n      swap1\n      pop\n        /* \"#utility.yul\":12016:12435   */\n      swap2\n      swap1\n      pop\n      jump\t// out\n\n    auxdata: 0xa2646970667358221220a62dff0d43ca45742a0ae45ad117b6dcf1c2b452c56b8a1bc7db55cb5513f6d964736f6c63430008120033\n}\n",
				"bytecode": {
					"linkReferences": {},
					"object": "608060405234801561001057600080fd5b5061002d61002261004c60201b60201c565b61005460201b60201c565b60008060146101000a81548160ff021916908315150217905550610118565b600033905090565b60008060009054906101000a900473ffffffffffffffffffffffffffffffffffffffff169050816000806101000a81548173ffffffffffffffffffffffffffffffffffffffff021916908373ffffffffffffffffffffffffffffffffffffffff1602179055508173ffffffffffffffffffffffffffffffffffffffff168173ffffffffffffffffffffffffffffffffffffffff167f8be0079c531659141344cd1fd0a4f28419497f9722a3daafe3b4186f6b6457e060405160405180910390a35050565b61113a806101276000396000f3fe608060405234801561001057600080fd5b50600436106100ea5760003560e01c8063715018a61161008c57806395d89b411161006657806395d89b41146101ef5780639dc29fac1461020d578063a9059cbb14610229578063f2fde38b14610245576100ea565b8063715018a6146101bd5780638456cb59146101c75780638da5cb5b146101d1576100ea565b8063313ce567116100c8578063313ce5671461015b5780633f4ba83a1461017957806340c10f19146101835780635c975abb1461019f576100ea565b806306fdde03146100ef57806318160ddd1461010d57806327e235e31461012b575b600080fd5b6100f7610261565b6040516101049190610b44565b60405180910390f35b61011561029a565b6040516101229190610b7f565b60405180910390f35b61014560048036038101906101409190610bfd565b6102a0565b6040516101529190610b7f565b60405180910390f35b6101636102b8565b6040516101709190610c46565b60405180910390f35b6101816102bd565b005b61019d60048036038101906101989190610c8d565b6102cf565b005b6101a7610398565b6040516101b49190610ce8565b60405180910390f35b6101c56103ae565b005b6101cf6103c2565b005b6101d96103d4565b6040516101e69190610d12565b60405180910390f35b6101f76103fd565b6040516102049190610b44565b60405180910390f35b61022760048036038101906102229190610c8d565b610436565b005b610243600480360381019061023e9190610c8d565b610581565b005b61025f600480360381019061025a9190610bfd565b61078f565b005b6040518060400160405280600981526020017f466f7879205065736f000000000000000000000000000000000000000000000081525081565b60015481565b60026020528060005260406000206000915090505481565b601281565b6102c5610812565b6102cd610890565b565b6102d7610812565b80600160008282546102e99190610d5c565b9250508190555080600260008473ffffffffffffffffffffffffffffffffffffffff1673ffffffffffffffffffffffffffffffffffffffff168152602001908152602001600020600082825461033f9190610d5c565b925050819055508173ffffffffffffffffffffffffffffffffffffffff167f0f6798a560793a54c3bcfe86a93cde1e73087d944c0ea20544137d41213968858260405161038c9190610b7f565b60405180910390a25050565b60008060149054906101000a900460ff16905090565b6103b6610812565b6103c060006108f2565b565b6103ca610812565b6103d26109b6565b565b60008060009054906101000a900473ffffffffffffffffffffffffffffffffffffffff16905090565b6040518060400160405280600281526020017f465000000000000000000000000000000000000000000000000000000000000081525081565b61043e610812565b80600260008473ffffffffffffffffffffffffffffffffffffffff1673ffffffffffffffffffffffffffffffffffffffff1681526020019081526020016000205410156104c0576040517f08c379a00000000000000000000000000000000000000000000000000000000081526004016104b790610ddc565b60405180910390fd5b80600260008473ffffffffffffffffffffffffffffffffffffffff1673ffffffffffffffffffffffffffffffffffffffff168152602001908152602001600020600082825461050f9190610dfc565b9250508190555080600160008282546105289190610dfc565b925050819055508173ffffffffffffffffffffffffffffffffffffffff167fcc16f5dbb4873280815c1ee09dbd06736cffcc184412cf7a71a0fdb75d397ca5826040516105759190610b7f565b60405180910390a25050565b610589610a19565b80600260003373ffffffffffffffffffffffffffffffffffffffff1673ffffffffffffffffffffffffffffffffffffffff16815260200190815260200160002054101561060b576040517f08c379a000000000000000000000000000000000000000000000000000000000815260040161060290610e7c565b60405180910390fd5b600073ffffffffffffffffffffffffffffffffffffffff168273ffffffffffffffffffffffffffffffffffffffff160361067a576040517f08c379a000000000000000000000000000000000000000000000000000000000815260040161067190610f0e565b60405180910390fd5b80600260003373ffffffffffffffffffffffffffffffffffffffff1673ffffffffffffffffffffffffffffffffffffffff16815260200190815260200160002060008282546106c99190610dfc565b9250508190555080600260008473ffffffffffffffffffffffffffffffffffffffff1673ffffffffffffffffffffffffffffffffffffffff168152602001908152602001600020600082825461071f9190610d5c565b925050819055508173ffffffffffffffffffffffffffffffffffffffff163373ffffffffffffffffffffffffffffffffffffffff167fddf252ad1be2c89b69c2b068fc378daa952ba7f163c4a11628f55a4df523b3ef836040516107839190610b7f565b60405180910390a35050565b610797610812565b600073ffffffffffffffffffffffffffffffffffffffff168173ffffffffffffffffffffffffffffffffffffffff1603610806576040517f08c379a00000000000000000000000000000000000000000000000000000000081526004016107fd90610fa0565b60405180910390fd5b61080f816108f2565b50565b61081a610a63565b73ffffffffffffffffffffffffffffffffffffffff166108386103d4565b73ffffffffffffffffffffffffffffffffffffffff161461088e576040517f08c379a00000000000000000000000000000000000000000000000000000000081526004016108859061100c565b60405180910390fd5b565b610898610a6b565b60008060146101000a81548160ff0219169083151502179055507f5db9ee0a495bf2e6ff9c91a7834c1ba4fdd244a5e8aa4e537bd38aeae4b073aa6108db610a63565b6040516108e89190610d12565b60405180910390a1565b60008060009054906101000a900473ffffffffffffffffffffffffffffffffffffffff169050816000806101000a81548173ffffffffffffffffffffffffffffffffffffffff021916908373ffffffffffffffffffffffffffffffffffffffff1602179055508173ffffffffffffffffffffffffffffffffffffffff168173ffffffffffffffffffffffffffffffffffffffff167f8be0079c531659141344cd1fd0a4f28419497f9722a3daafe3b4186f6b6457e060405160405180910390a35050565b6109be610a19565b6001600060146101000a81548160ff0219169083151502179055507f62e78cea01bee320cd4e420270b5ea74000d11b0c9f74754ebdbfc544b05a258610a02610a63565b604051610a0f9190610d12565b60405180910390a1565b610a21610398565b15610a61576040517f08c379a0000000000000000000000000000000000000000000000000000000008152600401610a5890611078565b60405180910390fd5b565b600033905090565b610a73610398565b610ab2576040517f08c379a0000000000000000000000000000000000000000000000000000000008152600401610aa9906110e4565b60405180910390fd5b565b600081519050919050565b600082825260208201905092915050565b60005b83811015610aee578082015181840152602081019050610ad3565b60008484015250505050565b6000601f19601f8301169050919050565b6000610b1682610ab4565b610b208185610abf565b9350610b30818560208601610ad0565b610b3981610afa565b840191505092915050565b60006020820190508181036000830152610b5e8184610b0b565b905092915050565b6000819050919050565b610b7981610b66565b82525050565b6000602082019050610b946000830184610b70565b92915050565b600080fd5b600073ffffffffffffffffffffffffffffffffffffffff82169050919050565b6000610bca82610b9f565b9050919050565b610bda81610bbf565b8114610be557600080fd5b50565b600081359050610bf781610bd1565b92915050565b600060208284031215610c1357610c12610b9a565b5b6000610c2184828501610be8565b91505092915050565b600060ff82169050919050565b610c4081610c2a565b82525050565b6000602082019050610c5b6000830184610c37565b92915050565b610c6a81610b66565b8114610c7557600080fd5b50565b600081359050610c8781610c61565b92915050565b60008060408385031215610ca457610ca3610b9a565b5b6000610cb285828601610be8565b9250506020610cc385828601610c78565b9150509250929050565b60008115159050919050565b610ce281610ccd565b82525050565b6000602082019050610cfd6000830184610cd9565b92915050565b610d0c81610bbf565b82525050565b6000602082019050610d276000830184610d03565b92915050565b7f4e487b7100000000000000000000000000000000000000000000000000000000600052601160045260246000fd5b6000610d6782610b66565b9150610d7283610b66565b9250828201905080821115610d8a57610d89610d2d565b5b92915050565b7f5468652062616c616e636520697320696e73756666696369656e742e00000000600082015250565b6000610dc6601c83610abf565b9150610dd182610d90565b602082019050919050565b60006020820190508181036000830152610df581610db9565b9050919050565b6000610e0782610b66565b9150610e1283610b66565b9250828203905081811115610e2a57610e29610d2d565b5b92915050565b7f596f75722062616c616e636520697320696e73756666696369656e742e000000600082015250565b6000610e66601d83610abf565b9150610e7182610e30565b602082019050919050565b60006020820190508181036000830152610e9581610e59565b9050919050565b7f54686520726563697069656e742773206164647265737320697320696e76616c60008201527f69642e0000000000000000000000000000000000000000000000000000000000602082015250565b6000610ef8602383610abf565b9150610f0382610e9c565b604082019050919050565b60006020820190508181036000830152610f2781610eeb565b9050919050565b7f4f776e61626c653a206e6577206f776e657220697320746865207a65726f206160008201527f6464726573730000000000000000000000000000000000000000000000000000602082015250565b6000610f8a602683610abf565b9150610f9582610f2e565b604082019050919050565b60006020820190508181036000830152610fb981610f7d565b9050919050565b7f4f776e61626c653a2063616c6c6572206973206e6f7420746865206f776e6572600082015250565b6000610ff6602083610abf565b915061100182610fc0565b602082019050919050565b6000602082019050818103600083015261102581610fe9565b9050919050565b7f5061757361626c653a2070617573656400000000000000000000000000000000600082015250565b6000611062601083610abf565b915061106d8261102c565b602082019050919050565b6000602082019050818103600083015261109181611055565b9050919050565b7f5061757361626c653a206e6f7420706175736564000000000000000000000000600082015250565b60006110ce601483610abf565b91506110d982611098565b602082019050919050565b600060208201905081810360008301526110fd816110c1565b905091905056fea2646970667358221220a62dff0d43ca45742a0ae45ad117b6dcf1c2b452c56b8a1bc7db55cb5513f6d964736f6c63430008120033",
					"opcodes": "PUSH1 0x80 PUSH1 0x40 MSTORE CALLVALUE DUP1 ISZERO PUSH2 0x10 JUMPI PUSH1 0x0 DUP1 REVERT JUMPDEST POP PUSH2 0x2D PUSH2 0x22 PUSH2 0x4C PUSH1 0x20 SHL PUSH1 0x20 SHR JUMP JUMPDEST PUSH2 0x54 PUSH1 0x20 SHL PUSH1 0x20 SHR JUMP JUMPDEST PUSH1 0x0 DUP1 PUSH1 0x14 PUSH2 0x100 EXP DUP2 SLOAD DUP2 PUSH1 0xFF MUL NOT AND SWAP1 DUP4 ISZERO ISZERO MUL OR SWAP1 SSTORE POP PUSH2 0x118 JUMP JUMPDEST PUSH1 0x0 CALLER SWAP1 POP SWAP1 JUMP JUMPDEST PUSH1 0x0 DUP1 PUSH1 0x0 SWAP1 SLOAD SWAP1 PUSH2 0x100 EXP SWAP1 DIV PUSH20 0xFFFFFFFFFFFFFFFFFFFFFFFFFFFFFFFFFFFFFFFF AND SWAP1 POP DUP2 PUSH1 0x0 DUP1 PUSH2 0x100 EXP DUP2 SLOAD DUP2 PUSH20 0xFFFFFFFFFFFFFFFFFFFFFFFFFFFFFFFFFFFFFFFF MUL NOT AND SWAP1 DUP4 PUSH20 0xFFFFFFFFFFFFFFFFFFFFFFFFFFFFFFFFFFFFFFFF AND MUL OR SWAP1 SSTORE POP DUP2 PUSH20 0xFFFFFFFFFFFFFFFFFFFFFFFFFFFFFFFFFFFFFFFF AND DUP2 PUSH20 0xFFFFFFFFFFFFFFFFFFFFFFFFFFFFFFFFFFFFFFFF AND PUSH32 0x8BE0079C531659141344CD1FD0A4F28419497F9722A3DAAFE3B4186F6B6457E0 PUSH1 0x40 MLOAD PUSH1 0x40 MLOAD DUP1 SWAP2 SUB SWAP1 LOG3 POP POP JUMP JUMPDEST PUSH2 0x113A DUP1 PUSH2 0x127 PUSH1 0x0 CODECOPY PUSH1 0x0 RETURN INVALID PUSH1 0x80 PUSH1 0x40 MSTORE CALLVALUE DUP1 ISZERO PUSH2 0x10 JUMPI PUSH1 0x0 DUP1 REVERT JUMPDEST POP PUSH1 0x4 CALLDATASIZE LT PUSH2 0xEA JUMPI PUSH1 0x0 CALLDATALOAD PUSH1 0xE0 SHR DUP1 PUSH4 0x715018A6 GT PUSH2 0x8C JUMPI DUP1 PUSH4 0x95D89B41 GT PUSH2 0x66 JUMPI DUP1 PUSH4 0x95D89B41 EQ PUSH2 0x1EF JUMPI DUP1 PUSH4 0x9DC29FAC EQ PUSH2 0x20D JUMPI DUP1 PUSH4 0xA9059CBB EQ PUSH2 0x229 JUMPI DUP1 PUSH4 0xF2FDE38B EQ PUSH2 0x245 JUMPI PUSH2 0xEA JUMP JUMPDEST DUP1 PUSH4 0x715018A6 EQ PUSH2 0x1BD JUMPI DUP1 PUSH4 0x8456CB59 EQ PUSH2 0x1C7 JUMPI DUP1 PUSH4 0x8DA5CB5B EQ PUSH2 0x1D1 JUMPI PUSH2 0xEA JUMP JUMPDEST DUP1 PUSH4 0x313CE567 GT PUSH2 0xC8 JUMPI DUP1 PUSH4 0x313CE567 EQ PUSH2 0x15B JUMPI DUP1 PUSH4 0x3F4BA83A EQ PUSH2 0x179 JUMPI DUP1 PUSH4 0x40C10F19 EQ PUSH2 0x183 JUMPI DUP1 PUSH4 0x5C975ABB EQ PUSH2 0x19F JUMPI PUSH2 0xEA JUMP JUMPDEST DUP1 PUSH4 0x6FDDE03 EQ PUSH2 0xEF JUMPI DUP1 PUSH4 0x18160DDD EQ PUSH2 0x10D JUMPI DUP1 PUSH4 0x27E235E3 EQ PUSH2 0x12B JUMPI JUMPDEST PUSH1 0x0 DUP1 REVERT JUMPDEST PUSH2 0xF7 PUSH2 0x261 JUMP JUMPDEST PUSH1 0x40 MLOAD PUSH2 0x104 SWAP2 SWAP1 PUSH2 0xB44 JUMP JUMPDEST PUSH1 0x40 MLOAD DUP1 SWAP2 SUB SWAP1 RETURN JUMPDEST PUSH2 0x115 PUSH2 0x29A JUMP JUMPDEST PUSH1 0x40 MLOAD PUSH2 0x122 SWAP2 SWAP1 PUSH2 0xB7F JUMP JUMPDEST PUSH1 0x40 MLOAD DUP1 SWAP2 SUB SWAP1 RETURN JUMPDEST PUSH2 0x145 PUSH1 0x4 DUP1 CALLDATASIZE SUB DUP2 ADD SWAP1 PUSH2 0x140 SWAP2 SWAP1 PUSH2 0xBFD JUMP JUMPDEST PUSH2 0x2A0 JUMP JUMPDEST PUSH1 0x40 MLOAD PUSH2 0x152 SWAP2 SWAP1 PUSH2 0xB7F JUMP JUMPDEST PUSH1 0x40 MLOAD DUP1 SWAP2 SUB SWAP1 RETURN JUMPDEST PUSH2 0x163 PUSH2 0x2B8 JUMP JUMPDEST PUSH1 0x40 MLOAD PUSH2 0x170 SWAP2 SWAP1 PUSH2 0xC46 JUMP JUMPDEST PUSH1 0x40 MLOAD DUP1 SWAP2 SUB SWAP1 RETURN JUMPDEST PUSH2 0x181 PUSH2 0x2BD JUMP JUMPDEST STOP JUMPDEST PUSH2 0x19D PUSH1 0x4 DUP1 CALLDATASIZE SUB DUP2 ADD SWAP1 PUSH2 0x198 SWAP2 SWAP1 PUSH2 0xC8D JUMP JUMPDEST PUSH2 0x2CF JUMP JUMPDEST STOP JUMPDEST PUSH2 0x1A7 PUSH2 0x398 JUMP JUMPDEST PUSH1 0x40 MLOAD PUSH2 0x1B4 SWAP2 SWAP1 PUSH2 0xCE8 JUMP JUMPDEST PUSH1 0x40 MLOAD DUP1 SWAP2 SUB SWAP1 RETURN JUMPDEST PUSH2 0x1C5 PUSH2 0x3AE JUMP JUMPDEST STOP JUMPDEST PUSH2 0x1CF PUSH2 0x3C2 JUMP JUMPDEST STOP JUMPDEST PUSH2 0x1D9 PUSH2 0x3D4 JUMP JUMPDEST PUSH1 0x40 MLOAD PUSH2 0x1E6 SWAP2 SWAP1 PUSH2 0xD12 JUMP JUMPDEST PUSH1 0x40 MLOAD DUP1 SWAP2 SUB SWAP1 RETURN JUMPDEST PUSH2 0x1F7 PUSH2 0x3FD JUMP JUMPDEST PUSH1 0x40 MLOAD PUSH2 0x204 SWAP2 SWAP1 PUSH2 0xB44 JUMP JUMPDEST PUSH1 0x40 MLOAD DUP1 SWAP2 SUB SWAP1 RETURN JUMPDEST PUSH2 0x227 PUSH1 0x4 DUP1 CALLDATASIZE SUB DUP2 ADD SWAP1 PUSH2 0x222 SWAP2 SWAP1 PUSH2 0xC8D JUMP JUMPDEST PUSH2 0x436 JUMP JUMPDEST STOP JUMPDEST PUSH2 0x243 PUSH1 0x4 DUP1 CALLDATASIZE SUB DUP2 ADD SWAP1 PUSH2 0x23E SWAP2 SWAP1 PUSH2 0xC8D JUMP JUMPDEST PUSH2 0x581 JUMP JUMPDEST STOP JUMPDEST PUSH2 0x25F PUSH1 0x4 DUP1 CALLDATASIZE SUB DUP2 ADD SWAP1 PUSH2 0x25A SWAP2 SWAP1 PUSH2 0xBFD JUMP JUMPDEST PUSH2 0x78F JUMP JUMPDEST STOP JUMPDEST PUSH1 0x40 MLOAD DUP1 PUSH1 0x40 ADD PUSH1 0x40 MSTORE DUP1 PUSH1 0x9 DUP2 MSTORE PUSH1 0x20 ADD PUSH32 0x466F7879205065736F0000000000000000000000000000000000000000000000 DUP2 MSTORE POP DUP2 JUMP JUMPDEST PUSH1 0x1 SLOAD DUP2 JUMP JUMPDEST PUSH1 0x2 PUSH1 0x20 MSTORE DUP1 PUSH1 0x0 MSTORE PUSH1 0x40 PUSH1 0x0 KECCAK256 PUSH1 0x0 SWAP2 POP SWAP1 POP SLOAD DUP2 JUMP JUMPDEST PUSH1 0x12 DUP2 JUMP JUMPDEST PUSH2 0x2C5 PUSH2 0x812 JUMP JUMPDEST PUSH2 0x2CD PUSH2 0x890 JUMP JUMPDEST JUMP JUMPDEST PUSH2 0x2D7 PUSH2 0x812 JUMP JUMPDEST DUP1 PUSH1 0x1 PUSH1 0x0 DUP3 DUP3 SLOAD PUSH2 0x2E9 SWAP2 SWAP1 PUSH2 0xD5C JUMP JUMPDEST SWAP3 POP POP DUP2 SWAP1 SSTORE POP DUP1 PUSH1 0x2 PUSH1 0x0 DUP5 PUSH20 0xFFFFFFFFFFFFFFFFFFFFFFFFFFFFFFFFFFFFFFFF AND PUSH20 0xFFFFFFFFFFFFFFFFFFFFFFFFFFFFFFFFFFFFFFFF AND DUP2 MSTORE PUSH1 0x20 ADD SWAP1 DUP2 MSTORE PUSH1 0x20 ADD PUSH1 0x0 KECCAK256 PUSH1 0x0 DUP3 DUP3 SLOAD PUSH2 0x33F SWAP2 SWAP1 PUSH2 0xD5C JUMP JUMPDEST SWAP3 POP POP DUP2 SWAP1 SSTORE POP DUP2 PUSH20 0xFFFFFFFFFFFFFFFFFFFFFFFFFFFFFFFFFFFFFFFF AND PUSH32 0xF6798A560793A54C3BCFE86A93CDE1E73087D944C0EA20544137D4121396885 DUP3 PUSH1 0x40 MLOAD PUSH2 0x38C SWAP2 SWAP1 PUSH2 0xB7F JUMP JUMPDEST PUSH1 0x40 MLOAD DUP1 SWAP2 SUB SWAP1 LOG2 POP POP JUMP JUMPDEST PUSH1 0x0 DUP1 PUSH1 0x14 SWAP1 SLOAD SWAP1 PUSH2 0x100 EXP SWAP1 DIV PUSH1 0xFF AND SWAP1 POP SWAP1 JUMP JUMPDEST PUSH2 0x3B6 PUSH2 0x812 JUMP JUMPDEST PUSH2 0x3C0 PUSH1 0x0 PUSH2 0x8F2 JUMP JUMPDEST JUMP JUMPDEST PUSH2 0x3CA PUSH2 0x812 JUMP JUMPDEST PUSH2 0x3D2 PUSH2 0x9B6 JUMP JUMPDEST JUMP JUMPDEST PUSH1 0x0 DUP1 PUSH1 0x0 SWAP1 SLOAD SWAP1 PUSH2 0x100 EXP SWAP1 DIV PUSH20 0xFFFFFFFFFFFFFFFFFFFFFFFFFFFFFFFFFFFFFFFF AND SWAP1 POP SWAP1 JUMP JUMPDEST PUSH1 0x40 MLOAD DUP1 PUSH1 0x40 ADD PUSH1 0x40 MSTORE DUP1 PUSH1 0x2 DUP2 MSTORE PUSH1 0x20 ADD PUSH32 0x4650000000000000000000000000000000000000000000000000000000000000 DUP2 MSTORE POP DUP2 JUMP JUMPDEST PUSH2 0x43E PUSH2 0x812 JUMP JUMPDEST DUP1 PUSH1 0x2 PUSH1 0x0 DUP5 PUSH20 0xFFFFFFFFFFFFFFFFFFFFFFFFFFFFFFFFFFFFFFFF AND PUSH20 0xFFFFFFFFFFFFFFFFFFFFFFFFFFFFFFFFFFFFFFFF AND DUP2 MSTORE PUSH1 0x20 ADD SWAP1 DUP2 MSTORE PUSH1 0x20 ADD PUSH1 0x0 KECCAK256 SLOAD LT ISZERO PUSH2 0x4C0 JUMPI PUSH1 0x40 MLOAD PUSH32 0x8C379A000000000000000000000000000000000000000000000000000000000 DUP2 MSTORE PUSH1 0x4 ADD PUSH2 0x4B7 SWAP1 PUSH2 0xDDC JUMP JUMPDEST PUSH1 0x40 MLOAD DUP1 SWAP2 SUB SWAP1 REVERT JUMPDEST DUP1 PUSH1 0x2 PUSH1 0x0 DUP5 PUSH20 0xFFFFFFFFFFFFFFFFFFFFFFFFFFFFFFFFFFFFFFFF AND PUSH20 0xFFFFFFFFFFFFFFFFFFFFFFFFFFFFFFFFFFFFFFFF AND DUP2 MSTORE PUSH1 0x20 ADD SWAP1 DUP2 MSTORE PUSH1 0x20 ADD PUSH1 0x0 KECCAK256 PUSH1 0x0 DUP3 DUP3 SLOAD PUSH2 0x50F SWAP2 SWAP1 PUSH2 0xDFC JUMP JUMPDEST SWAP3 POP POP DUP2 SWAP1 SSTORE POP DUP1 PUSH1 0x1 PUSH1 0x0 DUP3 DUP3 SLOAD PUSH2 0x528 SWAP2 SWAP1 PUSH2 0xDFC JUMP JUMPDEST SWAP3 POP POP DUP2 SWAP1 SSTORE POP DUP2 PUSH20 0xFFFFFFFFFFFFFFFFFFFFFFFFFFFFFFFFFFFFFFFF AND PUSH32 0xCC16F5DBB4873280815C1EE09DBD06736CFFCC184412CF7A71A0FDB75D397CA5 DUP3 PUSH1 0x40 MLOAD PUSH2 0x575 SWAP2 SWAP1 PUSH2 0xB7F JUMP JUMPDEST PUSH1 0x40 MLOAD DUP1 SWAP2 SUB SWAP1 LOG2 POP POP JUMP JUMPDEST PUSH2 0x589 PUSH2 0xA19 JUMP JUMPDEST DUP1 PUSH1 0x2 PUSH1 0x0 CALLER PUSH20 0xFFFFFFFFFFFFFFFFFFFFFFFFFFFFFFFFFFFFFFFF AND PUSH20 0xFFFFFFFFFFFFFFFFFFFFFFFFFFFFFFFFFFFFFFFF AND DUP2 MSTORE PUSH1 0x20 ADD SWAP1 DUP2 MSTORE PUSH1 0x20 ADD PUSH1 0x0 KECCAK256 SLOAD LT ISZERO PUSH2 0x60B JUMPI PUSH1 0x40 MLOAD PUSH32 0x8C379A000000000000000000000000000000000000000000000000000000000 DUP2 MSTORE PUSH1 0x4 ADD PUSH2 0x602 SWAP1 PUSH2 0xE7C JUMP JUMPDEST PUSH1 0x40 MLOAD DUP1 SWAP2 SUB SWAP1 REVERT JUMPDEST PUSH1 0x0 PUSH20 0xFFFFFFFFFFFFFFFFFFFFFFFFFFFFFFFFFFFFFFFF AND DUP3 PUSH20 0xFFFFFFFFFFFFFFFFFFFFFFFFFFFFFFFFFFFFFFFF AND SUB PUSH2 0x67A JUMPI PUSH1 0x40 MLOAD PUSH32 0x8C379A000000000000000000000000000000000000000000000000000000000 DUP2 MSTORE PUSH1 0x4 ADD PUSH2 0x671 SWAP1 PUSH2 0xF0E JUMP JUMPDEST PUSH1 0x40 MLOAD DUP1 SWAP2 SUB SWAP1 REVERT JUMPDEST DUP1 PUSH1 0x2 PUSH1 0x0 CALLER PUSH20 0xFFFFFFFFFFFFFFFFFFFFFFFFFFFFFFFFFFFFFFFF AND PUSH20 0xFFFFFFFFFFFFFFFFFFFFFFFFFFFFFFFFFFFFFFFF AND DUP2 MSTORE PUSH1 0x20 ADD SWAP1 DUP2 MSTORE PUSH1 0x20 ADD PUSH1 0x0 KECCAK256 PUSH1 0x0 DUP3 DUP3 SLOAD PUSH2 0x6C9 SWAP2 SWAP1 PUSH2 0xDFC JUMP JUMPDEST SWAP3 POP POP DUP2 SWAP1 SSTORE POP DUP1 PUSH1 0x2 PUSH1 0x0 DUP5 PUSH20 0xFFFFFFFFFFFFFFFFFFFFFFFFFFFFFFFFFFFFFFFF AND PUSH20 0xFFFFFFFFFFFFFFFFFFFFFFFFFFFFFFFFFFFFFFFF AND DUP2 MSTORE PUSH1 0x20 ADD SWAP1 DUP2 MSTORE PUSH1 0x20 ADD PUSH1 0x0 KECCAK256 PUSH1 0x0 DUP3 DUP3 SLOAD PUSH2 0x71F SWAP2 SWAP1 PUSH2 0xD5C JUMP JUMPDEST SWAP3 POP POP DUP2 SWAP1 SSTORE POP DUP2 PUSH20 0xFFFFFFFFFFFFFFFFFFFFFFFFFFFFFFFFFFFFFFFF AND CALLER PUSH20 0xFFFFFFFFFFFFFFFFFFFFFFFFFFFFFFFFFFFFFFFF AND PUSH32 0xDDF252AD1BE2C89B69C2B068FC378DAA952BA7F163C4A11628F55A4DF523B3EF DUP4 PUSH1 0x40 MLOAD PUSH2 0x783 SWAP2 SWAP1 PUSH2 0xB7F JUMP JUMPDEST PUSH1 0x40 MLOAD DUP1 SWAP2 SUB SWAP1 LOG3 POP POP JUMP JUMPDEST PUSH2 0x797 PUSH2 0x812 JUMP JUMPDEST PUSH1 0x0 PUSH20 0xFFFFFFFFFFFFFFFFFFFFFFFFFFFFFFFFFFFFFFFF AND DUP2 PUSH20 0xFFFFFFFFFFFFFFFFFFFFFFFFFFFFFFFFFFFFFFFF AND SUB PUSH2 0x806 JUMPI PUSH1 0x40 MLOAD PUSH32 0x8C379A000000000000000000000000000000000000000000000000000000000 DUP2 MSTORE PUSH1 0x4 ADD PUSH2 0x7FD SWAP1 PUSH2 0xFA0 JUMP JUMPDEST PUSH1 0x40 MLOAD DUP1 SWAP2 SUB SWAP1 REVERT JUMPDEST PUSH2 0x80F DUP2 PUSH2 0x8F2 JUMP JUMPDEST POP JUMP JUMPDEST PUSH2 0x81A PUSH2 0xA63 JUMP JUMPDEST PUSH20 0xFFFFFFFFFFFFFFFFFFFFFFFFFFFFFFFFFFFFFFFF AND PUSH2 0x838 PUSH2 0x3D4 JUMP JUMPDEST PUSH20 0xFFFFFFFFFFFFFFFFFFFFFFFFFFFFFFFFFFFFFFFF AND EQ PUSH2 0x88E JUMPI PUSH1 0x40 MLOAD PUSH32 0x8C379A000000000000000000000000000000000000000000000000000000000 DUP2 MSTORE PUSH1 0x4 ADD PUSH2 0x885 SWAP1 PUSH2 0x100C JUMP JUMPDEST PUSH1 0x40 MLOAD DUP1 SWAP2 SUB SWAP1 REVERT JUMPDEST JUMP JUMPDEST PUSH2 0x898 PUSH2 0xA6B JUMP JUMPDEST PUSH1 0x0 DUP1 PUSH1 0x14 PUSH2 0x100 EXP DUP2 SLOAD DUP2 PUSH1 0xFF MUL NOT AND SWAP1 DUP4 ISZERO ISZERO MUL OR SWAP1 SSTORE POP PUSH32 0x5DB9EE0A495BF2E6FF9C91A7834C1BA4FDD244A5E8AA4E537BD38AEAE4B073AA PUSH2 0x8DB PUSH2 0xA63 JUMP JUMPDEST PUSH1 0x40 MLOAD PUSH2 0x8E8 SWAP2 SWAP1 PUSH2 0xD12 JUMP JUMPDEST PUSH1 0x40 MLOAD DUP1 SWAP2 SUB SWAP1 LOG1 JUMP JUMPDEST PUSH1 0x0 DUP1 PUSH1 0x0 SWAP1 SLOAD SWAP1 PUSH2 0x100 EXP SWAP1 DIV PUSH20 0xFFFFFFFFFFFFFFFFFFFFFFFFFFFFFFFFFFFFFFFF AND SWAP1 POP DUP2 PUSH1 0x0 DUP1 PUSH2 0x100 EXP DUP2 SLOAD DUP2 PUSH20 0xFFFFFFFFFFFFFFFFFFFFFFFFFFFFFFFFFFFFFFFF MUL NOT AND SWAP1 DUP4 PUSH20 0xFFFFFFFFFFFFFFFFFFFFFFFFFFFFFFFFFFFFFFFF AND MUL OR SWAP1 SSTORE POP DUP2 PUSH20 0xFFFFFFFFFFFFFFFFFFFFFFFFFFFFFFFFFFFFFFFF AND DUP2 PUSH20 0xFFFFFFFFFFFFFFFFFFFFFFFFFFFFFFFFFFFFFFFF AND PUSH32 0x8BE0079C531659141344CD1FD0A4F28419497F9722A3DAAFE3B4186F6B6457E0 PUSH1 0x40 MLOAD PUSH1 0x40 MLOAD DUP1 SWAP2 SUB SWAP1 LOG3 POP POP JUMP JUMPDEST PUSH2 0x9BE PUSH2 0xA19 JUMP JUMPDEST PUSH1 0x1 PUSH1 0x0 PUSH1 0x14 PUSH2 0x100 EXP DUP2 SLOAD DUP2 PUSH1 0xFF MUL NOT AND SWAP1 DUP4 ISZERO ISZERO MUL OR SWAP1 SSTORE POP PUSH32 0x62E78CEA01BEE320CD4E420270B5EA74000D11B0C9F74754EBDBFC544B05A258 PUSH2 0xA02 PUSH2 0xA63 JUMP JUMPDEST PUSH1 0x40 MLOAD PUSH2 0xA0F SWAP2 SWAP1 PUSH2 0xD12 JUMP JUMPDEST PUSH1 0x40 MLOAD DUP1 SWAP2 SUB SWAP1 LOG1 JUMP JUMPDEST PUSH2 0xA21 PUSH2 0x398 JUMP JUMPDEST ISZERO PUSH2 0xA61 JUMPI PUSH1 0x40 MLOAD PUSH32 0x8C379A000000000000000000000000000000000000000000000000000000000 DUP2 MSTORE PUSH1 0x4 ADD PUSH2 0xA58 SWAP1 PUSH2 0x1078 JUMP JUMPDEST PUSH1 0x40 MLOAD DUP1 SWAP2 SUB SWAP1 REVERT JUMPDEST JUMP JUMPDEST PUSH1 0x0 CALLER SWAP1 POP SWAP1 JUMP JUMPDEST PUSH2 0xA73 PUSH2 0x398 JUMP JUMPDEST PUSH2 0xAB2 JUMPI PUSH1 0x40 MLOAD PUSH32 0x8C379A000000000000000000000000000000000000000000000000000000000 DUP2 MSTORE PUSH1 0x4 ADD PUSH2 0xAA9 SWAP1 PUSH2 0x10E4 JUMP JUMPDEST PUSH1 0x40 MLOAD DUP1 SWAP2 SUB SWAP1 REVERT JUMPDEST JUMP JUMPDEST PUSH1 0x0 DUP2 MLOAD SWAP1 POP SWAP2 SWAP1 POP JUMP JUMPDEST PUSH1 0x0 DUP3 DUP3 MSTORE PUSH1 0x20 DUP3 ADD SWAP1 POP SWAP3 SWAP2 POP POP JUMP JUMPDEST PUSH1 0x0 JUMPDEST DUP4 DUP2 LT ISZERO PUSH2 0xAEE JUMPI DUP1 DUP3 ADD MLOAD DUP2 DUP5 ADD MSTORE PUSH1 0x20 DUP2 ADD SWAP1 POP PUSH2 0xAD3 JUMP JUMPDEST PUSH1 0x0 DUP5 DUP5 ADD MSTORE POP POP POP POP JUMP JUMPDEST PUSH1 0x0 PUSH1 0x1F NOT PUSH1 0x1F DUP4 ADD AND SWAP1 POP SWAP2 SWAP1 POP JUMP JUMPDEST PUSH1 0x0 PUSH2 0xB16 DUP3 PUSH2 0xAB4 JUMP JUMPDEST PUSH2 0xB20 DUP2 DUP6 PUSH2 0xABF JUMP JUMPDEST SWAP4 POP PUSH2 0xB30 DUP2 DUP6 PUSH1 0x20 DUP7 ADD PUSH2 0xAD0 JUMP JUMPDEST PUSH2 0xB39 DUP2 PUSH2 0xAFA JUMP JUMPDEST DUP5 ADD SWAP2 POP POP SWAP3 SWAP2 POP POP JUMP JUMPDEST PUSH1 0x0 PUSH1 0x20 DUP3 ADD SWAP1 POP DUP2 DUP2 SUB PUSH1 0x0 DUP4 ADD MSTORE PUSH2 0xB5E DUP2 DUP5 PUSH2 0xB0B JUMP JUMPDEST SWAP1 POP SWAP3 SWAP2 POP POP JUMP JUMPDEST PUSH1 0x0 DUP2 SWAP1 POP SWAP2 SWAP1 POP JUMP JUMPDEST PUSH2 0xB79 DUP2 PUSH2 0xB66 JUMP JUMPDEST DUP3 MSTORE POP POP JUMP JUMPDEST PUSH1 0x0 PUSH1 0x20 DUP3 ADD SWAP1 POP PUSH2 0xB94 PUSH1 0x0 DUP4 ADD DUP5 PUSH2 0xB70 JUMP JUMPDEST SWAP3 SWAP2 POP POP JUMP JUMPDEST PUSH1 0x0 DUP1 REVERT JUMPDEST PUSH1 0x0 PUSH20 0xFFFFFFFFFFFFFFFFFFFFFFFFFFFFFFFFFFFFFFFF DUP3 AND SWAP1 POP SWAP2 SWAP1 POP JUMP JUMPDEST PUSH1 0x0 PUSH2 0xBCA DUP3 PUSH2 0xB9F JUMP JUMPDEST SWAP1 POP SWAP2 SWAP1 POP JUMP JUMPDEST PUSH2 0xBDA DUP2 PUSH2 0xBBF JUMP JUMPDEST DUP2 EQ PUSH2 0xBE5 JUMPI PUSH1 0x0 DUP1 REVERT JUMPDEST POP JUMP JUMPDEST PUSH1 0x0 DUP2 CALLDATALOAD SWAP1 POP PUSH2 0xBF7 DUP2 PUSH2 0xBD1 JUMP JUMPDEST SWAP3 SWAP2 POP POP JUMP JUMPDEST PUSH1 0x0 PUSH1 0x20 DUP3 DUP5 SUB SLT ISZERO PUSH2 0xC13 JUMPI PUSH2 0xC12 PUSH2 0xB9A JUMP JUMPDEST JUMPDEST PUSH1 0x0 PUSH2 0xC21 DUP5 DUP3 DUP6 ADD PUSH2 0xBE8 JUMP JUMPDEST SWAP2 POP POP SWAP3 SWAP2 POP POP JUMP JUMPDEST PUSH1 0x0 PUSH1 0xFF DUP3 AND SWAP1 POP SWAP2 SWAP1 POP JUMP JUMPDEST PUSH2 0xC40 DUP2 PUSH2 0xC2A JUMP JUMPDEST DUP3 MSTORE POP POP JUMP JUMPDEST PUSH1 0x0 PUSH1 0x20 DUP3 ADD SWAP1 POP PUSH2 0xC5B PUSH1 0x0 DUP4 ADD DUP5 PUSH2 0xC37 JUMP JUMPDEST SWAP3 SWAP2 POP POP JUMP JUMPDEST PUSH2 0xC6A DUP2 PUSH2 0xB66 JUMP JUMPDEST DUP2 EQ PUSH2 0xC75 JUMPI PUSH1 0x0 DUP1 REVERT JUMPDEST POP JUMP JUMPDEST PUSH1 0x0 DUP2 CALLDATALOAD SWAP1 POP PUSH2 0xC87 DUP2 PUSH2 0xC61 JUMP JUMPDEST SWAP3 SWAP2 POP POP JUMP JUMPDEST PUSH1 0x0 DUP1 PUSH1 0x40 DUP4 DUP6 SUB SLT ISZERO PUSH2 0xCA4 JUMPI PUSH2 0xCA3 PUSH2 0xB9A JUMP JUMPDEST JUMPDEST PUSH1 0x0 PUSH2 0xCB2 DUP6 DUP3 DUP7 ADD PUSH2 0xBE8 JUMP JUMPDEST SWAP3 POP POP PUSH1 0x20 PUSH2 0xCC3 DUP6 DUP3 DUP7 ADD PUSH2 0xC78 JUMP JUMPDEST SWAP2 POP POP SWAP3 POP SWAP3 SWAP1 POP JUMP JUMPDEST PUSH1 0x0 DUP2 ISZERO ISZERO SWAP1 POP SWAP2 SWAP1 POP JUMP JUMPDEST PUSH2 0xCE2 DUP2 PUSH2 0xCCD JUMP JUMPDEST DUP3 MSTORE POP POP JUMP JUMPDEST PUSH1 0x0 PUSH1 0x20 DUP3 ADD SWAP1 POP PUSH2 0xCFD PUSH1 0x0 DUP4 ADD DUP5 PUSH2 0xCD9 JUMP JUMPDEST SWAP3 SWAP2 POP POP JUMP JUMPDEST PUSH2 0xD0C DUP2 PUSH2 0xBBF JUMP JUMPDEST DUP3 MSTORE POP POP JUMP JUMPDEST PUSH1 0x0 PUSH1 0x20 DUP3 ADD SWAP1 POP PUSH2 0xD27 PUSH1 0x0 DUP4 ADD DUP5 PUSH2 0xD03 JUMP JUMPDEST SWAP3 SWAP2 POP POP JUMP JUMPDEST PUSH32 0x4E487B7100000000000000000000000000000000000000000000000000000000 PUSH1 0x0 MSTORE PUSH1 0x11 PUSH1 0x4 MSTORE PUSH1 0x24 PUSH1 0x0 REVERT JUMPDEST PUSH1 0x0 PUSH2 0xD67 DUP3 PUSH2 0xB66 JUMP JUMPDEST SWAP2 POP PUSH2 0xD72 DUP4 PUSH2 0xB66 JUMP JUMPDEST SWAP3 POP DUP3 DUP3 ADD SWAP1 POP DUP1 DUP3 GT ISZERO PUSH2 0xD8A JUMPI PUSH2 0xD89 PUSH2 0xD2D JUMP JUMPDEST JUMPDEST SWAP3 SWAP2 POP POP JUMP JUMPDEST PUSH32 0x5468652062616C616E636520697320696E73756666696369656E742E00000000 PUSH1 0x0 DUP3 ADD MSTORE POP JUMP JUMPDEST PUSH1 0x0 PUSH2 0xDC6 PUSH1 0x1C DUP4 PUSH2 0xABF JUMP JUMPDEST SWAP2 POP PUSH2 0xDD1 DUP3 PUSH2 0xD90 JUMP JUMPDEST PUSH1 0x20 DUP3 ADD SWAP1 POP SWAP2 SWAP1 POP JUMP JUMPDEST PUSH1 0x0 PUSH1 0x20 DUP3 ADD SWAP1 POP DUP2 DUP2 SUB PUSH1 0x0 DUP4 ADD MSTORE PUSH2 0xDF5 DUP2 PUSH2 0xDB9 JUMP JUMPDEST SWAP1 POP SWAP2 SWAP1 POP JUMP JUMPDEST PUSH1 0x0 PUSH2 0xE07 DUP3 PUSH2 0xB66 JUMP JUMPDEST SWAP2 POP PUSH2 0xE12 DUP4 PUSH2 0xB66 JUMP JUMPDEST SWAP3 POP DUP3 DUP3 SUB SWAP1 POP DUP2 DUP2 GT ISZERO PUSH2 0xE2A JUMPI PUSH2 0xE29 PUSH2 0xD2D JUMP JUMPDEST JUMPDEST SWAP3 SWAP2 POP POP JUMP JUMPDEST PUSH32 0x596F75722062616C616E636520697320696E73756666696369656E742E000000 PUSH1 0x0 DUP3 ADD MSTORE POP JUMP JUMPDEST PUSH1 0x0 PUSH2 0xE66 PUSH1 0x1D DUP4 PUSH2 0xABF JUMP JUMPDEST SWAP2 POP PUSH2 0xE71 DUP3 PUSH2 0xE30 JUMP JUMPDEST PUSH1 0x20 DUP3 ADD SWAP1 POP SWAP2 SWAP1 POP JUMP JUMPDEST PUSH1 0x0 PUSH1 0x20 DUP3 ADD SWAP1 POP DUP2 DUP2 SUB PUSH1 0x0 DUP4 ADD MSTORE PUSH2 0xE95 DUP2 PUSH2 0xE59 JUMP JUMPDEST SWAP1 POP SWAP2 SWAP1 POP JUMP JUMPDEST PUSH32 0x54686520726563697069656E742773206164647265737320697320696E76616C PUSH1 0x0 DUP3 ADD MSTORE PUSH32 0x69642E0000000000000000000000000000000000000000000000000000000000 PUSH1 0x20 DUP3 ADD MSTORE POP JUMP JUMPDEST PUSH1 0x0 PUSH2 0xEF8 PUSH1 0x23 DUP4 PUSH2 0xABF JUMP JUMPDEST SWAP2 POP PUSH2 0xF03 DUP3 PUSH2 0xE9C JUMP JUMPDEST PUSH1 0x40 DUP3 ADD SWAP1 POP SWAP2 SWAP1 POP JUMP JUMPDEST PUSH1 0x0 PUSH1 0x20 DUP3 ADD SWAP1 POP DUP2 DUP2 SUB PUSH1 0x0 DUP4 ADD MSTORE PUSH2 0xF27 DUP2 PUSH2 0xEEB JUMP JUMPDEST SWAP1 POP SWAP2 SWAP1 POP JUMP JUMPDEST PUSH32 0x4F776E61626C653A206E6577206F776E657220697320746865207A65726F2061 PUSH1 0x0 DUP3 ADD MSTORE PUSH32 0x6464726573730000000000000000000000000000000000000000000000000000 PUSH1 0x20 DUP3 ADD MSTORE POP JUMP JUMPDEST PUSH1 0x0 PUSH2 0xF8A PUSH1 0x26 DUP4 PUSH2 0xABF JUMP JUMPDEST SWAP2 POP PUSH2 0xF95 DUP3 PUSH2 0xF2E JUMP JUMPDEST PUSH1 0x40 DUP3 ADD SWAP1 POP SWAP2 SWAP1 POP JUMP JUMPDEST PUSH1 0x0 PUSH1 0x20 DUP3 ADD SWAP1 POP DUP2 DUP2 SUB PUSH1 0x0 DUP4 ADD MSTORE PUSH2 0xFB9 DUP2 PUSH2 0xF7D JUMP JUMPDEST SWAP1 POP SWAP2 SWAP1 POP JUMP JUMPDEST PUSH32 0x4F776E61626C653A2063616C6C6572206973206E6F7420746865206F776E6572 PUSH1 0x0 DUP3 ADD MSTORE POP JUMP JUMPDEST PUSH1 0x0 PUSH2 0xFF6 PUSH1 0x20 DUP4 PUSH2 0xABF JUMP JUMPDEST SWAP2 POP PUSH2 0x1001 DUP3 PUSH2 0xFC0 JUMP JUMPDEST PUSH1 0x20 DUP3 ADD SWAP1 POP SWAP2 SWAP1 POP JUMP JUMPDEST PUSH1 0x0 PUSH1 0x20 DUP3 ADD SWAP1 POP DUP2 DUP2 SUB PUSH1 0x0 DUP4 ADD MSTORE PUSH2 0x1025 DUP2 PUSH2 0xFE9 JUMP JUMPDEST SWAP1 POP SWAP2 SWAP1 POP JUMP JUMPDEST PUSH32 0x5061757361626C653A2070617573656400000000000000000000000000000000 PUSH1 0x0 DUP3 ADD MSTORE POP JUMP JUMPDEST PUSH1 0x0 PUSH2 0x1062 PUSH1 0x10 DUP4 PUSH2 0xABF JUMP JUMPDEST SWAP2 POP PUSH2 0x106D DUP3 PUSH2 0x102C JUMP JUMPDEST PUSH1 0x20 DUP3 ADD SWAP1 POP SWAP2 SWAP1 POP JUMP JUMPDEST PUSH1 0x0 PUSH1 0x20 DUP3 ADD SWAP1 POP DUP2 DUP2 SUB PUSH1 0x0 DUP4 ADD MSTORE PUSH2 0x1091 DUP2 PUSH2 0x1055 JUMP JUMPDEST SWAP1 POP SWAP2 SWAP1 POP JUMP JUMPDEST PUSH32 0x5061757361626C653A206E6F7420706175736564000000000000000000000000 PUSH1 0x0 DUP3 ADD MSTORE POP JUMP JUMPDEST PUSH1 0x0 PUSH2 0x10CE PUSH1 0x14 DUP4 PUSH2 0xABF JUMP JUMPDEST SWAP2 POP PUSH2 0x10D9 DUP3 PUSH2 0x1098 JUMP JUMPDEST PUSH1 0x20 DUP3 ADD SWAP1 POP SWAP2 SWAP1 POP JUMP JUMPDEST PUSH1 0x0 PUSH1 0x20 DUP3 ADD SWAP1 POP DUP2 DUP2 SUB PUSH1 0x0 DUP4 ADD MSTORE PUSH2 0x10FD DUP2 PUSH2 0x10C1 JUMP JUMPDEST SWAP1 POP SWAP2 SWAP1 POP JUMP INVALID LOG2 PUSH5 0x6970667358 0x22 SLT KECCAK256 0xA6 0x2D SELFDESTRUCT 0xD NUMBER 0xCA GASLIMIT PUSH21 0x2A0AE45AD117B6DCF1C2B452C56B8A1BC7DB55CB55 SGT 0xF6 0xD9 PUSH5 0x736F6C6343 STOP ADDMOD SLT STOP CALLER "
				},
				"gasEstimates": {
					"creation": {
						"codeDepositCost": "882000",
						"executionCost": "infinite",
						"totalCost": "infinite"
					},
					"external": {
						"balances(address)": "2882",
						"burn(address,uint256)": "infinite",
						"decimals()": "358",
						"mint(address,uint256)": "infinite",
						"name()": "infinite",
						"owner()": "2589",
						"pause()": "infinite",
						"paused()": "2618",
						"renounceOwnership()": "30421",
						"symbol()": "infinite",
						"totalSupply()": "2475",
						"transfer(address,uint256)": "infinite",
						"transferOwnership(address)": "30832",
						"unpause()": "infinite"
					}
				},
				"methodIdentifiers": {
					"balances(address)": "27e235e3",
					"burn(address,uint256)": "9dc29fac",
					"decimals()": "313ce567",
					"mint(address,uint256)": "40c10f19",
					"name()": "06fdde03",
					"owner()": "8da5cb5b",
					"pause()": "8456cb59",
					"paused()": "5c975abb",
					"renounceOwnership()": "715018a6",
					"symbol()": "95d89b41",
					"totalSupply()": "18160ddd",
					"transfer(address,uint256)": "a9059cbb",
					"transferOwnership(address)": "f2fde38b",
					"unpause()": "3f4ba83a"
				}
			},
			"storageLayout": {
				"storage": [
					{
						"astId": 7,
						"contract": "Module4.sol:FoxyPeso",
						"label": "_owner",
						"offset": 0,
						"slot": "0",
						"type": "t_address"
					},
					{
						"astId": 130,
						"contract": "Module4.sol:FoxyPeso",
						"label": "_paused",
						"offset": 20,
						"slot": "0",
						"type": "t_bool"
					},
					{
						"astId": 261,
						"contract": "Module4.sol:FoxyPeso",
						"label": "totalSupply",
						"offset": 0,
						"slot": "1",
						"type": "t_uint256"
					},
					{
						"astId": 265,
						"contract": "Module4.sol:FoxyPeso",
						"label": "balances",
						"offset": 0,
						"slot": "2",
						"type": "t_mapping(t_address,t_uint256)"
					}
				],
				"types": {
					"t_address": {
						"encoding": "inplace",
						"label": "address",
						"numberOfBytes": "20"
					},
					"t_bool": {
						"encoding": "inplace",
						"label": "bool",
						"numberOfBytes": "1"
					},
					"t_mapping(t_address,t_uint256)": {
						"encoding": "mapping",
						"key": "t_address",
						"label": "mapping(address => uint256)",
						"numberOfBytes": "32",
						"value": "t_uint256"
					},
					"t_uint256": {
						"encoding": "inplace",
						"label": "uint256",
						"numberOfBytes": "32"
					}
				}
			},
			"userdoc": {
				"kind": "user",
				"methods": {},
				"version": 1
			}
		}
	}
}